{
  "_format": "hh-sol-artifact-1",
  "contractName": "RentalNFT",
  "sourceName": "contracts/RentalNFT.sol",
  "abi": [
    {
      "inputs": [],
      "stateMutability": "nonpayable",
      "type": "constructor"
    },
    {
      "anonymous": false,
      "inputs": [
        {
          "indexed": true,
          "internalType": "address",
          "name": "owner",
          "type": "address"
        },
        {
          "indexed": true,
          "internalType": "address",
          "name": "approved",
          "type": "address"
        },
        {
          "indexed": true,
          "internalType": "uint256",
          "name": "tokenId",
          "type": "uint256"
        }
      ],
      "name": "Approval",
      "type": "event"
    },
    {
      "anonymous": false,
      "inputs": [
        {
          "indexed": true,
          "internalType": "address",
          "name": "owner",
          "type": "address"
        },
        {
          "indexed": true,
          "internalType": "address",
          "name": "operator",
          "type": "address"
        },
        {
          "indexed": false,
          "internalType": "bool",
          "name": "approved",
          "type": "bool"
        }
      ],
      "name": "ApprovalForAll",
      "type": "event"
    },
    {
      "anonymous": false,
      "inputs": [
        {
          "indexed": true,
          "internalType": "address",
          "name": "previousOwner",
          "type": "address"
        },
        {
          "indexed": true,
          "internalType": "address",
          "name": "newOwner",
          "type": "address"
        }
      ],
      "name": "OwnershipTransferred",
      "type": "event"
    },
    {
      "anonymous": false,
      "inputs": [
        {
          "indexed": true,
          "internalType": "address",
          "name": "from",
          "type": "address"
        },
        {
          "indexed": true,
          "internalType": "address",
          "name": "to",
          "type": "address"
        },
        {
          "indexed": true,
          "internalType": "uint256",
          "name": "tokenId",
          "type": "uint256"
        }
      ],
      "name": "Transfer",
      "type": "event"
    },
    {
      "inputs": [
        {
          "internalType": "address",
          "name": "to",
          "type": "address"
        },
        {
          "internalType": "uint256",
          "name": "tokenId",
          "type": "uint256"
        }
      ],
      "name": "approve",
      "outputs": [],
      "stateMutability": "nonpayable",
      "type": "function"
    },
    {
      "inputs": [
        {
          "internalType": "address",
          "name": "owner",
          "type": "address"
        }
      ],
      "name": "balanceOf",
      "outputs": [
        {
          "internalType": "uint256",
          "name": "",
          "type": "uint256"
        }
      ],
      "stateMutability": "view",
      "type": "function"
    },
    {
      "inputs": [
        {
          "internalType": "uint256",
          "name": "tokenId",
          "type": "uint256"
        },
        {
          "internalType": "uint256",
          "name": "duration",
          "type": "uint256"
        },
        {
          "internalType": "uint256",
          "name": "deposit",
          "type": "uint256"
        }
      ],
      "name": "createRental",
      "outputs": [],
      "stateMutability": "nonpayable",
      "type": "function"
    },
    {
      "inputs": [
        {
          "internalType": "uint256",
          "name": "tokenId",
          "type": "uint256"
        }
      ],
      "name": "endRental",
      "outputs": [],
      "stateMutability": "nonpayable",
      "type": "function"
    },
    {
      "inputs": [
        {
          "internalType": "address",
          "name": "",
          "type": "address"
        }
      ],
      "name": "escrow",
      "outputs": [
        {
          "internalType": "uint256",
          "name": "",
          "type": "uint256"
        }
      ],
      "stateMutability": "view",
      "type": "function"
    },
    {
      "inputs": [
        {
          "internalType": "uint256",
          "name": "tokenId",
          "type": "uint256"
        }
      ],
      "name": "getApproved",
      "outputs": [
        {
          "internalType": "address",
          "name": "",
          "type": "address"
        }
      ],
      "stateMutability": "view",
      "type": "function"
    },
    {
      "inputs": [
        {
          "internalType": "address",
          "name": "owner",
          "type": "address"
        },
        {
          "internalType": "address",
          "name": "operator",
          "type": "address"
        }
      ],
      "name": "isApprovedForAll",
      "outputs": [
        {
          "internalType": "bool",
          "name": "",
          "type": "bool"
        }
      ],
      "stateMutability": "view",
      "type": "function"
    },
    {
      "inputs": [
        {
          "internalType": "address",
          "name": "to",
          "type": "address"
        }
      ],
      "name": "mintNFT",
      "outputs": [],
      "stateMutability": "nonpayable",
      "type": "function"
    },
    {
      "inputs": [],
      "name": "name",
      "outputs": [
        {
          "internalType": "string",
          "name": "",
          "type": "string"
        }
      ],
      "stateMutability": "view",
      "type": "function"
    },
    {
      "inputs": [],
      "name": "owner",
      "outputs": [
        {
          "internalType": "address",
          "name": "",
          "type": "address"
        }
      ],
      "stateMutability": "view",
      "type": "function"
    },
    {
      "inputs": [
        {
          "internalType": "uint256",
          "name": "tokenId",
          "type": "uint256"
        }
      ],
      "name": "ownerOf",
      "outputs": [
        {
          "internalType": "address",
          "name": "",
          "type": "address"
        }
      ],
      "stateMutability": "view",
      "type": "function"
    },
    {
      "inputs": [],
      "name": "renounceOwnership",
      "outputs": [],
      "stateMutability": "nonpayable",
      "type": "function"
    },
    {
      "inputs": [
        {
          "internalType": "uint256",
          "name": "",
          "type": "uint256"
        }
      ],
      "name": "rentals",
      "outputs": [
        {
          "internalType": "address",
          "name": "renter",
          "type": "address"
        },
        {
          "internalType": "uint256",
          "name": "tokenId",
          "type": "uint256"
        },
        {
          "internalType": "uint256",
          "name": "startTime",
          "type": "uint256"
        },
        {
          "internalType": "uint256",
          "name": "endTime",
          "type": "uint256"
        },
        {
          "internalType": "uint256",
          "name": "deposit",
          "type": "uint256"
        }
      ],
      "stateMutability": "view",
      "type": "function"
    },
    {
      "inputs": [
        {
          "internalType": "address",
          "name": "from",
          "type": "address"
        },
        {
          "internalType": "address",
          "name": "to",
          "type": "address"
        },
        {
          "internalType": "uint256",
          "name": "tokenId",
          "type": "uint256"
        }
      ],
      "name": "safeTransferFrom",
      "outputs": [],
      "stateMutability": "nonpayable",
      "type": "function"
    },
    {
      "inputs": [
        {
          "internalType": "address",
          "name": "from",
          "type": "address"
        },
        {
          "internalType": "address",
          "name": "to",
          "type": "address"
        },
        {
          "internalType": "uint256",
          "name": "tokenId",
          "type": "uint256"
        },
        {
          "internalType": "bytes",
          "name": "data",
          "type": "bytes"
        }
      ],
      "name": "safeTransferFrom",
      "outputs": [],
      "stateMutability": "nonpayable",
      "type": "function"
    },
    {
      "inputs": [
        {
          "internalType": "address",
          "name": "operator",
          "type": "address"
        },
        {
          "internalType": "bool",
          "name": "approved",
          "type": "bool"
        }
      ],
      "name": "setApprovalForAll",
      "outputs": [],
      "stateMutability": "nonpayable",
      "type": "function"
    },
    {
      "inputs": [
        {
          "internalType": "uint256",
          "name": "tokenId",
          "type": "uint256"
        }
      ],
      "name": "startRental",
      "outputs": [],
      "stateMutability": "payable",
      "type": "function"
    },
    {
      "inputs": [
        {
          "internalType": "bytes4",
          "name": "interfaceId",
          "type": "bytes4"
        }
      ],
      "name": "supportsInterface",
      "outputs": [
        {
          "internalType": "bool",
          "name": "",
          "type": "bool"
        }
      ],
      "stateMutability": "view",
      "type": "function"
    },
    {
      "inputs": [],
      "name": "symbol",
      "outputs": [
        {
          "internalType": "string",
          "name": "",
          "type": "string"
        }
      ],
      "stateMutability": "view",
      "type": "function"
    },
    {
      "inputs": [
        {
          "internalType": "uint256",
          "name": "tokenId",
          "type": "uint256"
        }
      ],
      "name": "tokenURI",
      "outputs": [
        {
          "internalType": "string",
          "name": "",
          "type": "string"
        }
      ],
      "stateMutability": "view",
      "type": "function"
    },
    {
      "inputs": [
        {
          "internalType": "address",
          "name": "from",
          "type": "address"
        },
        {
          "internalType": "address",
          "name": "to",
          "type": "address"
        },
        {
          "internalType": "uint256",
          "name": "tokenId",
          "type": "uint256"
        }
      ],
      "name": "transferFrom",
      "outputs": [],
      "stateMutability": "nonpayable",
      "type": "function"
    },
    {
      "inputs": [
        {
          "internalType": "address",
          "name": "newOwner",
          "type": "address"
        }
      ],
      "name": "transferOwnership",
      "outputs": [],
      "stateMutability": "nonpayable",
      "type": "function"
    }
  ],
  "bytecode": "0x60806040523480156200001157600080fd5b506040518060400160405280600981526020017f52656e74616c4e465400000000000000000000000000000000000000000000008152506040518060400160405280600381526020017f524e54000000000000000000000000000000000000000000000000000000000081525081600090816200008f91906200041a565b508060019081620000a191906200041a565b505050620000c4620000b8620000d260201b60201c565b620000da60201b60201c565b600060098190555062000501565b600033905090565b6000600660009054906101000a900473ffffffffffffffffffffffffffffffffffffffff16905081600660006101000a81548173ffffffffffffffffffffffffffffffffffffffff021916908373ffffffffffffffffffffffffffffffffffffffff1602179055508173ffffffffffffffffffffffffffffffffffffffff168173ffffffffffffffffffffffffffffffffffffffff167f8be0079c531659141344cd1fd0a4f28419497f9722a3daafe3b4186f6b6457e060405160405180910390a35050565b600081519050919050565b7f4e487b7100000000000000000000000000000000000000000000000000000000600052604160045260246000fd5b7f4e487b7100000000000000000000000000000000000000000000000000000000600052602260045260246000fd5b600060028204905060018216806200022257607f821691505b602082108103620002385762000237620001da565b5b50919050565b60008190508160005260206000209050919050565b60006020601f8301049050919050565b600082821b905092915050565b600060088302620002a27fffffffffffffffffffffffffffffffffffffffffffffffffffffffffffffffff8262000263565b620002ae868362000263565b95508019841693508086168417925050509392505050565b6000819050919050565b6000819050919050565b6000620002fb620002f5620002ef84620002c6565b620002d0565b620002c6565b9050919050565b6000819050919050565b6200031783620002da565b6200032f620003268262000302565b84845462000270565b825550505050565b600090565b6200034662000337565b620003538184846200030c565b505050565b5b818110156200037b576200036f6000826200033c565b60018101905062000359565b5050565b601f821115620003ca5762000394816200023e565b6200039f8462000253565b81016020851015620003af578190505b620003c7620003be8562000253565b83018262000358565b50505b505050565b600082821c905092915050565b6000620003ef60001984600802620003cf565b1980831691505092915050565b60006200040a8383620003dc565b9150826002028217905092915050565b6200042582620001a0565b67ffffffffffffffff811115620004415762000440620001ab565b5b6200044d825462000209565b6200045a8282856200037f565b600060209050601f8311600181146200049257600084156200047d578287015190505b620004898582620003fc565b865550620004f9565b601f198416620004a2866200023e565b60005b82811015620004cc57848901518255600182019150602085019450602081019050620004a5565b86831015620004ec5784890151620004e8601f891682620003dc565b8355505b6001600288020188555050505b505050505050565b6133f980620005116000396000f3fe6080604052600436106101355760003560e01c806370a08231116100ab578063a22cb4651161006f578063a22cb46514610415578063af94a1d11461043e578063b88d4fde1461047f578063c87b56dd146104a8578063e985e9c5146104e5578063f2fde38b1461052257610135565b806370a0823114610342578063715018a61461037f5780638da5cb5b1461039657806395d89b41146103c157806397491d6f146103ec57610135565b80631744cce8116100fd5780631744cce81461022457806323b872dd1461024d57806342842e0e1461027657806354ba0f271461029f57806357d3c7c3146102c85780636352211e1461030557610135565b806301ffc9a71461013a57806306fdde0314610177578063081812fc146101a2578063095ea7b3146101df5780630c3e1dd014610208575b600080fd5b34801561014657600080fd5b50610161600480360381019061015c91906121ea565b61054b565b60405161016e9190612232565b60405180910390f35b34801561018357600080fd5b5061018c61062d565b60405161019991906122dd565b60405180910390f35b3480156101ae57600080fd5b506101c960048036038101906101c49190612335565b6106bf565b6040516101d691906123a3565b60405180910390f35b3480156101eb57600080fd5b50610206600480360381019061020191906123ea565b610705565b005b610222600480360381019061021d9190612335565b61081c565b005b34801561023057600080fd5b5061024b6004803603810190610246919061242a565b6109c7565b005b34801561025957600080fd5b50610274600480360381019061026f919061247d565b610bb5565b005b34801561028257600080fd5b5061029d6004803603810190610298919061247d565b610c15565b005b3480156102ab57600080fd5b506102c660048036038101906102c191906124d0565b610c35565b005b3480156102d457600080fd5b506102ef60048036038101906102ea91906124d0565b610c64565b6040516102fc919061250c565b60405180910390f35b34801561031157600080fd5b5061032c60048036038101906103279190612335565b610c7c565b60405161033991906123a3565b60405180910390f35b34801561034e57600080fd5b50610369600480360381019061036491906124d0565b610d02565b604051610376919061250c565b60405180910390f35b34801561038b57600080fd5b50610394610db9565b005b3480156103a257600080fd5b506103ab610dcd565b6040516103b891906123a3565b60405180910390f35b3480156103cd57600080fd5b506103d6610df7565b6040516103e391906122dd565b60405180910390f35b3480156103f857600080fd5b50610413600480360381019061040e9190612335565b610e89565b005b34801561042157600080fd5b5061043c60048036038101906104379190612553565b611098565b005b34801561044a57600080fd5b5061046560048036038101906104609190612335565b6110ae565b604051610476959493929190612593565b60405180910390f35b34801561048b57600080fd5b506104a660048036038101906104a1919061271b565b611104565b005b3480156104b457600080fd5b506104cf60048036038101906104ca9190612335565b611166565b6040516104dc91906122dd565b60405180910390f35b3480156104f157600080fd5b5061050c6004803603810190610507919061279e565b6111ce565b6040516105199190612232565b60405180910390f35b34801561052e57600080fd5b50610549600480360381019061054491906124d0565b611262565b005b60007f80ac58cd000000000000000000000000000000000000000000000000000000007bffffffffffffffffffffffffffffffffffffffffffffffffffffffff1916827bffffffffffffffffffffffffffffffffffffffffffffffffffffffff1916148061061657507f5b5e139f000000000000000000000000000000000000000000000000000000007bffffffffffffffffffffffffffffffffffffffffffffffffffffffff1916827bffffffffffffffffffffffffffffffffffffffffffffffffffffffff1916145b806106265750610625826112e5565b5b9050919050565b60606000805461063c9061280d565b80601f01602080910402602001604051908101604052809291908181526020018280546106689061280d565b80156106b55780601f1061068a576101008083540402835291602001916106b5565b820191906000526020600020905b81548152906001019060200180831161069857829003601f168201915b5050505050905090565b60006106ca8261134f565b6004600083815260200190815260200160002060009054906101000a900473ffffffffffffffffffffffffffffffffffffffff169050919050565b600061071082610c7c565b90508073ffffffffffffffffffffffffffffffffffffffff168373ffffffffffffffffffffffffffffffffffffffff1603610780576040517f08c379a0000000000000000000000000000000000000000000000000000000008152600401610777906128b0565b60405180910390fd5b8073ffffffffffffffffffffffffffffffffffffffff1661079f61139a565b73ffffffffffffffffffffffffffffffffffffffff1614806107ce57506107cd816107c861139a565b6111ce565b5b61080d576040517f08c379a000000000000000000000000000000000000000000000000000000000815260040161080490612942565b60405180910390fd5b61081783836113a2565b505050565b600073ffffffffffffffffffffffffffffffffffffffff166007600083815260200190815260200160002060000160009054906101000a900473ffffffffffffffffffffffffffffffffffffffff1673ffffffffffffffffffffffffffffffffffffffff16146108c1576040517f08c379a00000000000000000000000000000000000000000000000000000000081526004016108b8906129ae565b60405180910390fd5b60076000828152602001908152602001600020600401543414610919576040517f08c379a000000000000000000000000000000000000000000000000000000000815260040161091090612a1a565b60405180910390fd5b336007600083815260200190815260200160002060000160006101000a81548173ffffffffffffffffffffffffffffffffffffffff021916908373ffffffffffffffffffffffffffffffffffffffff16021790555034600860003373ffffffffffffffffffffffffffffffffffffffff1673ffffffffffffffffffffffffffffffffffffffff16815260200190815260200160002060008282546109bd9190612a69565b9250508190555050565b3373ffffffffffffffffffffffffffffffffffffffff166109e784610c7c565b73ffffffffffffffffffffffffffffffffffffffff1614610a3d576040517f08c379a0000000000000000000000000000000000000000000000000000000008152600401610a3490612ae9565b60405180910390fd5b600073ffffffffffffffffffffffffffffffffffffffff166007600085815260200190815260200160002060000160009054906101000a900473ffffffffffffffffffffffffffffffffffffffff1673ffffffffffffffffffffffffffffffffffffffff1614610ae2576040517f08c379a0000000000000000000000000000000000000000000000000000000008152600401610ad990612b55565b60405180910390fd5b6040518060a00160405280600073ffffffffffffffffffffffffffffffffffffffff1681526020018481526020014281526020018342610b229190612a69565b8152602001828152506007600085815260200190815260200160002060008201518160000160006101000a81548173ffffffffffffffffffffffffffffffffffffffff021916908373ffffffffffffffffffffffffffffffffffffffff16021790555060208201518160010155604082015181600201556060820151816003015560808201518160040155905050505050565b610bc6610bc061139a565b8261145b565b610c05576040517f08c379a0000000000000000000000000000000000000000000000000000000008152600401610bfc90612be7565b60405180910390fd5b610c108383836114f0565b505050565b610c3083838360405180602001604052806000815250611104565b505050565b610c3d6117e9565b60096000815480929190610c5090612c07565b9190505550610c6181600954611867565b50565b60086020528060005260406000206000915090505481565b600080610c8883611a84565b9050600073ffffffffffffffffffffffffffffffffffffffff168173ffffffffffffffffffffffffffffffffffffffff1603610cf9576040517f08c379a0000000000000000000000000000000000000000000000000000000008152600401610cf090612c9b565b60405180910390fd5b80915050919050565b60008073ffffffffffffffffffffffffffffffffffffffff168273ffffffffffffffffffffffffffffffffffffffff1603610d72576040517f08c379a0000000000000000000000000000000000000000000000000000000008152600401610d6990612d2d565b60405180910390fd5b600360008373ffffffffffffffffffffffffffffffffffffffff1673ffffffffffffffffffffffffffffffffffffffff168152602001908152602001600020549050919050565b610dc16117e9565b610dcb6000611ac1565b565b6000600660009054906101000a900473ffffffffffffffffffffffffffffffffffffffff16905090565b606060018054610e069061280d565b80601f0160208091040260200160405190810160405280929190818152602001828054610e329061280d565b8015610e7f5780601f10610e5457610100808354040283529160200191610e7f565b820191906000526020600020905b815481529060010190602001808311610e6257829003601f168201915b5050505050905090565b3373ffffffffffffffffffffffffffffffffffffffff166007600083815260200190815260200160002060000160009054906101000a900473ffffffffffffffffffffffffffffffffffffffff1673ffffffffffffffffffffffffffffffffffffffff1614610f2d576040517f08c379a0000000000000000000000000000000000000000000000000000000008152600401610f2490612d99565b60405180910390fd5b6007600082815260200190815260200160002060030154421015610f86576040517f08c379a0000000000000000000000000000000000000000000000000000000008152600401610f7d90612e05565b60405180910390fd5b60006007600083815260200190815260200160002060040154905080600860003373ffffffffffffffffffffffffffffffffffffffff1673ffffffffffffffffffffffffffffffffffffffff1681526020019081526020016000206000828254610ff09190612e25565b925050819055503373ffffffffffffffffffffffffffffffffffffffff166108fc829081150290604051600060405180830381858888f1935050505015801561103d573d6000803e3d6000fd5b5060006007600084815260200190815260200160002060000160006101000a81548173ffffffffffffffffffffffffffffffffffffffff021916908373ffffffffffffffffffffffffffffffffffffffff1602179055505050565b6110aa6110a361139a565b8383611b87565b5050565b60076020528060005260406000206000915090508060000160009054906101000a900473ffffffffffffffffffffffffffffffffffffffff16908060010154908060020154908060030154908060040154905085565b61111561110f61139a565b8361145b565b611154576040517f08c379a000000000000000000000000000000000000000000000000000000000815260040161114b90612be7565b60405180910390fd5b61116084848484611cf3565b50505050565b60606111718261134f565b600061117b611d4f565b9050600081511161119b57604051806020016040528060008152506111c6565b806111a584611d66565b6040516020016111b6929190612e95565b6040516020818303038152906040525b915050919050565b6000600560008473ffffffffffffffffffffffffffffffffffffffff1673ffffffffffffffffffffffffffffffffffffffff16815260200190815260200160002060008373ffffffffffffffffffffffffffffffffffffffff1673ffffffffffffffffffffffffffffffffffffffff16815260200190815260200160002060009054906101000a900460ff16905092915050565b61126a6117e9565b600073ffffffffffffffffffffffffffffffffffffffff168173ffffffffffffffffffffffffffffffffffffffff16036112d9576040517f08c379a00000000000000000000000000000000000000000000000000000000081526004016112d090612f2b565b60405180910390fd5b6112e281611ac1565b50565b60007f01ffc9a7000000000000000000000000000000000000000000000000000000007bffffffffffffffffffffffffffffffffffffffffffffffffffffffff1916827bffffffffffffffffffffffffffffffffffffffffffffffffffffffff1916149050919050565b61135881611e34565b611397576040517f08c379a000000000000000000000000000000000000000000000000000000000815260040161138e90612c9b565b60405180910390fd5b50565b600033905090565b816004600083815260200190815260200160002060006101000a81548173ffffffffffffffffffffffffffffffffffffffff021916908373ffffffffffffffffffffffffffffffffffffffff160217905550808273ffffffffffffffffffffffffffffffffffffffff1661141583610c7c565b73ffffffffffffffffffffffffffffffffffffffff167f8c5be1e5ebec7d5bd14f71427d1e84f3dd0314c0f7b2291e5b200ac8c7c3b92560405160405180910390a45050565b60008061146783610c7c565b90508073ffffffffffffffffffffffffffffffffffffffff168473ffffffffffffffffffffffffffffffffffffffff1614806114a957506114a881856111ce565b5b806114e757508373ffffffffffffffffffffffffffffffffffffffff166114cf846106bf565b73ffffffffffffffffffffffffffffffffffffffff16145b91505092915050565b8273ffffffffffffffffffffffffffffffffffffffff1661151082610c7c565b73ffffffffffffffffffffffffffffffffffffffff1614611566576040517f08c379a000000000000000000000000000000000000000000000000000000000815260040161155d90612fbd565b60405180910390fd5b600073ffffffffffffffffffffffffffffffffffffffff168273ffffffffffffffffffffffffffffffffffffffff16036115d5576040517f08c379a00000000000000000000000000000000000000000000000000000000081526004016115cc9061304f565b60405180910390fd5b6115e28383836001611e75565b8273ffffffffffffffffffffffffffffffffffffffff1661160282610c7c565b73ffffffffffffffffffffffffffffffffffffffff1614611658576040517f08c379a000000000000000000000000000000000000000000000000000000000815260040161164f90612fbd565b60405180910390fd5b6004600082815260200190815260200160002060006101000a81549073ffffffffffffffffffffffffffffffffffffffff02191690556001600360008573ffffffffffffffffffffffffffffffffffffffff1673ffffffffffffffffffffffffffffffffffffffff168152602001908152602001600020600082825403925050819055506001600360008473ffffffffffffffffffffffffffffffffffffffff1673ffffffffffffffffffffffffffffffffffffffff16815260200190815260200160002060008282540192505081905550816002600083815260200190815260200160002060006101000a81548173ffffffffffffffffffffffffffffffffffffffff021916908373ffffffffffffffffffffffffffffffffffffffff160217905550808273ffffffffffffffffffffffffffffffffffffffff168473ffffffffffffffffffffffffffffffffffffffff167fddf252ad1be2c89b69c2b068fc378daa952ba7f163c4a11628f55a4df523b3ef60405160405180910390a46117e48383836001611e7b565b505050565b6117f161139a565b73ffffffffffffffffffffffffffffffffffffffff1661180f610dcd565b73ffffffffffffffffffffffffffffffffffffffff1614611865576040517f08c379a000000000000000000000000000000000000000000000000000000000815260040161185c906130bb565b60405180910390fd5b565b600073ffffffffffffffffffffffffffffffffffffffff168273ffffffffffffffffffffffffffffffffffffffff16036118d6576040517f08c379a00000000000000000000000000000000000000000000000000000000081526004016118cd90613127565b60405180910390fd5b6118df81611e34565b1561191f576040517f08c379a000000000000000000000000000000000000000000000000000000000815260040161191690613193565b60405180910390fd5b61192d600083836001611e75565b61193681611e34565b15611976576040517f08c379a000000000000000000000000000000000000000000000000000000000815260040161196d90613193565b60405180910390fd5b6001600360008473ffffffffffffffffffffffffffffffffffffffff1673ffffffffffffffffffffffffffffffffffffffff16815260200190815260200160002060008282540192505081905550816002600083815260200190815260200160002060006101000a81548173ffffffffffffffffffffffffffffffffffffffff021916908373ffffffffffffffffffffffffffffffffffffffff160217905550808273ffffffffffffffffffffffffffffffffffffffff16600073ffffffffffffffffffffffffffffffffffffffff167fddf252ad1be2c89b69c2b068fc378daa952ba7f163c4a11628f55a4df523b3ef60405160405180910390a4611a80600083836001611e7b565b5050565b60006002600083815260200190815260200160002060009054906101000a900473ffffffffffffffffffffffffffffffffffffffff169050919050565b6000600660009054906101000a900473ffffffffffffffffffffffffffffffffffffffff16905081600660006101000a81548173ffffffffffffffffffffffffffffffffffffffff021916908373ffffffffffffffffffffffffffffffffffffffff1602179055508173ffffffffffffffffffffffffffffffffffffffff168173ffffffffffffffffffffffffffffffffffffffff167f8be0079c531659141344cd1fd0a4f28419497f9722a3daafe3b4186f6b6457e060405160405180910390a35050565b8173ffffffffffffffffffffffffffffffffffffffff168373ffffffffffffffffffffffffffffffffffffffff1603611bf5576040517f08c379a0000000000000000000000000000000000000000000000000000000008152600401611bec906131ff565b60405180910390fd5b80600560008573ffffffffffffffffffffffffffffffffffffffff1673ffffffffffffffffffffffffffffffffffffffff16815260200190815260200160002060008473ffffffffffffffffffffffffffffffffffffffff1673ffffffffffffffffffffffffffffffffffffffff16815260200190815260200160002060006101000a81548160ff0219169083151502179055508173ffffffffffffffffffffffffffffffffffffffff168373ffffffffffffffffffffffffffffffffffffffff167f17307eab39ab6107e8899845ad3d59bd9653f200f220920489ca2b5937696c3183604051611ce69190612232565b60405180910390a3505050565b611cfe8484846114f0565b611d0a84848484611e81565b611d49576040517f08c379a0000000000000000000000000000000000000000000000000000000008152600401611d4090613291565b60405180910390fd5b50505050565b606060405180602001604052806000815250905090565b606060006001611d7584612008565b01905060008167ffffffffffffffff811115611d9457611d936125f0565b5b6040519080825280601f01601f191660200182016040528015611dc65781602001600182028036833780820191505090505b509050600082602001820190505b600115611e29578080600190039150507f3031323334353637383961626364656600000000000000000000000000000000600a86061a8153600a8581611e1d57611e1c6132b1565b5b04945060008503611dd4575b819350505050919050565b60008073ffffffffffffffffffffffffffffffffffffffff16611e5683611a84565b73ffffffffffffffffffffffffffffffffffffffff1614159050919050565b50505050565b50505050565b6000611ea28473ffffffffffffffffffffffffffffffffffffffff1661215b565b15611ffb578373ffffffffffffffffffffffffffffffffffffffff1663150b7a02611ecb61139a565b8786866040518563ffffffff1660e01b8152600401611eed9493929190613335565b6020604051808303816000875af1925050508015611f2957506040513d601f19601f82011682018060405250810190611f269190613396565b60015b611fab573d8060008114611f59576040519150601f19603f3d011682016040523d82523d6000602084013e611f5e565b606091505b506000815103611fa3576040517f08c379a0000000000000000000000000000000000000000000000000000000008152600401611f9a90613291565b60405180910390fd5b805181602001fd5b63150b7a0260e01b7bffffffffffffffffffffffffffffffffffffffffffffffffffffffff1916817bffffffffffffffffffffffffffffffffffffffffffffffffffffffff191614915050612000565b600190505b949350505050565b600080600090507a184f03e93ff9f4daa797ed6e38ed64bf6a1f0100000000000000008310612066577a184f03e93ff9f4daa797ed6e38ed64bf6a1f010000000000000000838161205c5761205b6132b1565b5b0492506040810190505b6d04ee2d6d415b85acef810000000083106120a3576d04ee2d6d415b85acef81000000008381612099576120986132b1565b5b0492506020810190505b662386f26fc1000083106120d257662386f26fc1000083816120c8576120c76132b1565b5b0492506010810190505b6305f5e10083106120fb576305f5e10083816120f1576120f06132b1565b5b0492506008810190505b6127108310612120576127108381612116576121156132b1565b5b0492506004810190505b606483106121435760648381612139576121386132b1565b5b0492506002810190505b600a8310612152576001810190505b80915050919050565b6000808273ffffffffffffffffffffffffffffffffffffffff163b119050919050565b6000604051905090565b600080fd5b600080fd5b60007fffffffff0000000000000000000000000000000000000000000000000000000082169050919050565b6121c781612192565b81146121d257600080fd5b50565b6000813590506121e4816121be565b92915050565b600060208284031215612200576121ff612188565b5b600061220e848285016121d5565b91505092915050565b60008115159050919050565b61222c81612217565b82525050565b60006020820190506122476000830184612223565b92915050565b600081519050919050565b600082825260208201905092915050565b60005b8381101561228757808201518184015260208101905061226c565b60008484015250505050565b6000601f19601f8301169050919050565b60006122af8261224d565b6122b98185612258565b93506122c9818560208601612269565b6122d281612293565b840191505092915050565b600060208201905081810360008301526122f781846122a4565b905092915050565b6000819050919050565b612312816122ff565b811461231d57600080fd5b50565b60008135905061232f81612309565b92915050565b60006020828403121561234b5761234a612188565b5b600061235984828501612320565b91505092915050565b600073ffffffffffffffffffffffffffffffffffffffff82169050919050565b600061238d82612362565b9050919050565b61239d81612382565b82525050565b60006020820190506123b86000830184612394565b92915050565b6123c781612382565b81146123d257600080fd5b50565b6000813590506123e4816123be565b92915050565b6000806040838503121561240157612400612188565b5b600061240f858286016123d5565b925050602061242085828601612320565b9150509250929050565b60008060006060848603121561244357612442612188565b5b600061245186828701612320565b935050602061246286828701612320565b925050604061247386828701612320565b9150509250925092565b60008060006060848603121561249657612495612188565b5b60006124a4868287016123d5565b93505060206124b5868287016123d5565b92505060406124c686828701612320565b9150509250925092565b6000602082840312156124e6576124e5612188565b5b60006124f4848285016123d5565b91505092915050565b612506816122ff565b82525050565b600060208201905061252160008301846124fd565b92915050565b61253081612217565b811461253b57600080fd5b50565b60008135905061254d81612527565b92915050565b6000806040838503121561256a57612569612188565b5b6000612578858286016123d5565b92505060206125898582860161253e565b9150509250929050565b600060a0820190506125a86000830188612394565b6125b560208301876124fd565b6125c260408301866124fd565b6125cf60608301856124fd565b6125dc60808301846124fd565b9695505050505050565b600080fd5b600080fd5b7f4e487b7100000000000000000000000000000000000000000000000000000000600052604160045260246000fd5b61262882612293565b810181811067ffffffffffffffff82111715612647576126466125f0565b5b80604052505050565b600061265a61217e565b9050612666828261261f565b919050565b600067ffffffffffffffff821115612686576126856125f0565b5b61268f82612293565b9050602081019050919050565b82818337600083830152505050565b60006126be6126b98461266b565b612650565b9050828152602081018484840111156126da576126d96125eb565b5b6126e584828561269c565b509392505050565b600082601f830112612702576127016125e6565b5b81356127128482602086016126ab565b91505092915050565b6000806000806080858703121561273557612734612188565b5b6000612743878288016123d5565b9450506020612754878288016123d5565b935050604061276587828801612320565b925050606085013567ffffffffffffffff8111156127865761278561218d565b5b612792878288016126ed565b91505092959194509250565b600080604083850312156127b5576127b4612188565b5b60006127c3858286016123d5565b92505060206127d4858286016123d5565b9150509250929050565b7f4e487b7100000000000000000000000000000000000000000000000000000000600052602260045260246000fd5b6000600282049050600182168061282557607f821691505b602082108103612838576128376127de565b5b50919050565b7f4552433732313a20617070726f76616c20746f2063757272656e74206f776e6560008201527f7200000000000000000000000000000000000000000000000000000000000000602082015250565b600061289a602183612258565b91506128a58261283e565b604082019050919050565b600060208201905081810360008301526128c98161288d565b9050919050565b7f4552433732313a20617070726f76652063616c6c6572206973206e6f7420746f60008201527f6b656e206f776e6572206f7220617070726f76656420666f7220616c6c000000602082015250565b600061292c603d83612258565b9150612937826128d0565b604082019050919050565b6000602082019050818103600083015261295b8161291f565b9050919050565b7f416c72656164792072656e746564000000000000000000000000000000000000600082015250565b6000612998600e83612258565b91506129a382612962565b602082019050919050565b600060208201905081810360008301526129c78161298b565b9050919050565b7f496e636f7272656374206465706f736974000000000000000000000000000000600082015250565b6000612a04601183612258565b9150612a0f826129ce565b602082019050919050565b60006020820190508181036000830152612a33816129f7565b9050919050565b7f4e487b7100000000000000000000000000000000000000000000000000000000600052601160045260246000fd5b6000612a74826122ff565b9150612a7f836122ff565b9250828201905080821115612a9757612a96612a3a565b5b92915050565b7f4f6e6c79206f776e65722063616e206372656174652072656e74616c73000000600082015250565b6000612ad3601d83612258565b9150612ade82612a9d565b602082019050919050565b60006020820190508181036000830152612b0281612ac6565b9050919050565b7f546f6b656e20616c72656164792072656e746564000000000000000000000000600082015250565b6000612b3f601483612258565b9150612b4a82612b09565b602082019050919050565b60006020820190508181036000830152612b6e81612b32565b9050919050565b7f4552433732313a2063616c6c6572206973206e6f7420746f6b656e206f776e6560008201527f72206f7220617070726f76656400000000000000000000000000000000000000602082015250565b6000612bd1602d83612258565b9150612bdc82612b75565b604082019050919050565b60006020820190508181036000830152612c0081612bc4565b9050919050565b6000612c12826122ff565b91507fffffffffffffffffffffffffffffffffffffffffffffffffffffffffffffffff8203612c4457612c43612a3a565b5b600182019050919050565b7f4552433732313a20696e76616c696420746f6b656e2049440000000000000000600082015250565b6000612c85601883612258565b9150612c9082612c4f565b602082019050919050565b60006020820190508181036000830152612cb481612c78565b9050919050565b7f4552433732313a2061646472657373207a65726f206973206e6f74206120766160008201527f6c6964206f776e65720000000000000000000000000000000000000000000000602082015250565b6000612d17602983612258565b9150612d2282612cbb565b604082019050919050565b60006020820190508181036000830152612d4681612d0a565b9050919050565b7f4e6f74207468652072656e746572000000000000000000000000000000000000600082015250565b6000612d83600e83612258565b9150612d8e82612d4d565b602082019050919050565b60006020820190508181036000830152612db281612d76565b9050919050565b7f52656e74616c20706572696f64206e6f74206f76657200000000000000000000600082015250565b6000612def601683612258565b9150612dfa82612db9565b602082019050919050565b60006020820190508181036000830152612e1e81612de2565b9050919050565b6000612e30826122ff565b9150612e3b836122ff565b9250828203905081811115612e5357612e52612a3a565b5b92915050565b600081905092915050565b6000612e6f8261224d565b612e798185612e59565b9350612e89818560208601612269565b80840191505092915050565b6000612ea18285612e64565b9150612ead8284612e64565b91508190509392505050565b7f4f776e61626c653a206e6577206f776e657220697320746865207a65726f206160008201527f6464726573730000000000000000000000000000000000000000000000000000602082015250565b6000612f15602683612258565b9150612f2082612eb9565b604082019050919050565b60006020820190508181036000830152612f4481612f08565b9050919050565b7f4552433732313a207472616e736665722066726f6d20696e636f72726563742060008201527f6f776e6572000000000000000000000000000000000000000000000000000000602082015250565b6000612fa7602583612258565b9150612fb282612f4b565b604082019050919050565b60006020820190508181036000830152612fd681612f9a565b9050919050565b7f4552433732313a207472616e7366657220746f20746865207a65726f2061646460008201527f7265737300000000000000000000000000000000000000000000000000000000602082015250565b6000613039602483612258565b915061304482612fdd565b604082019050919050565b600060208201905081810360008301526130688161302c565b9050919050565b7f4f776e61626c653a2063616c6c6572206973206e6f7420746865206f776e6572600082015250565b60006130a5602083612258565b91506130b08261306f565b602082019050919050565b600060208201905081810360008301526130d481613098565b9050919050565b7f4552433732313a206d696e7420746f20746865207a65726f2061646472657373600082015250565b6000613111602083612258565b915061311c826130db565b602082019050919050565b6000602082019050818103600083015261314081613104565b9050919050565b7f4552433732313a20746f6b656e20616c7265616479206d696e74656400000000600082015250565b600061317d601c83612258565b915061318882613147565b602082019050919050565b600060208201905081810360008301526131ac81613170565b9050919050565b7f4552433732313a20617070726f766520746f2063616c6c657200000000000000600082015250565b60006131e9601983612258565b91506131f4826131b3565b602082019050919050565b60006020820190508181036000830152613218816131dc565b9050919050565b7f4552433732313a207472616e7366657220746f206e6f6e20455243373231526560008201527f63656976657220696d706c656d656e7465720000000000000000000000000000602082015250565b600061327b603283612258565b91506132868261321f565b604082019050919050565b600060208201905081810360008301526132aa8161326e565b9050919050565b7f4e487b7100000000000000000000000000000000000000000000000000000000600052601260045260246000fd5b600081519050919050565b600082825260208201905092915050565b6000613307826132e0565b61331181856132eb565b9350613321818560208601612269565b61332a81612293565b840191505092915050565b600060808201905061334a6000830187612394565b6133576020830186612394565b61336460408301856124fd565b818103606083015261337681846132fc565b905095945050505050565b600081519050613390816121be565b92915050565b6000602082840312156133ac576133ab612188565b5b60006133ba84828501613381565b9150509291505056fea2646970667358221220e99bd63bbd2cec14d158f0a494913a195ed60870eeb8b7217fedcacae9b4735a64736f6c63430008140033",
  "linkReferences": {},
  "deployedLinkReferences": {}
}