{
  "_format": "hh-sol-artifact-1",
  "contractName": "RentalNFT",
  "sourceName": "contracts/RentalNFT.sol",
  "abi": [
    {
      "inputs": [],
      "stateMutability": "nonpayable",
      "type": "constructor"
    },
    {
      "anonymous": false,
      "inputs": [
        {
          "indexed": true,
          "internalType": "address",
          "name": "owner",
          "type": "address"
        },
        {
          "indexed": true,
          "internalType": "address",
          "name": "approved",
          "type": "address"
        },
        {
          "indexed": true,
          "internalType": "uint256",
          "name": "tokenId",
          "type": "uint256"
        }
      ],
      "name": "Approval",
      "type": "event"
    },
    {
      "anonymous": false,
      "inputs": [
        {
          "indexed": true,
          "internalType": "address",
          "name": "owner",
          "type": "address"
        },
        {
          "indexed": true,
          "internalType": "address",
          "name": "operator",
          "type": "address"
        },
        {
          "indexed": false,
          "internalType": "bool",
          "name": "approved",
          "type": "bool"
        }
      ],
      "name": "ApprovalForAll",
      "type": "event"
    },
    {
      "anonymous": false,
      "inputs": [
        {
          "indexed": true,
          "internalType": "address",
          "name": "to",
          "type": "address"
        },
        {
          "indexed": false,
          "internalType": "uint256",
          "name": "tokenId",
          "type": "uint256"
        }
      ],
      "name": "NFTMinted",
      "type": "event"
    },
    {
      "anonymous": false,
      "inputs": [
        {
          "indexed": true,
          "internalType": "address",
          "name": "renter",
          "type": "address"
        },
        {
          "indexed": true,
          "internalType": "uint256",
          "name": "tokenId",
          "type": "uint256"
        }
      ],
      "name": "NFTReturned",
      "type": "event"
    },
    {
      "anonymous": false,
      "inputs": [
        {
          "indexed": true,
          "internalType": "address",
          "name": "previousOwner",
          "type": "address"
        },
        {
          "indexed": true,
          "internalType": "address",
          "name": "newOwner",
          "type": "address"
        }
      ],
      "name": "OwnershipTransferred",
      "type": "event"
    },
    {
      "anonymous": false,
      "inputs": [
        {
          "indexed": true,
          "internalType": "address",
          "name": "renter",
          "type": "address"
        },
        {
          "indexed": true,
          "internalType": "uint256",
          "name": "tokenId",
          "type": "uint256"
        },
        {
          "indexed": false,
          "internalType": "uint256",
          "name": "returnTime",
          "type": "uint256"
        }
      ],
      "name": "RentalEnded",
      "type": "event"
    },
    {
      "anonymous": false,
      "inputs": [
        {
          "indexed": true,
          "internalType": "address",
          "name": "renter",
          "type": "address"
        },
        {
          "indexed": true,
          "internalType": "uint256",
          "name": "tokenId",
          "type": "uint256"
        },
        {
          "indexed": false,
          "internalType": "uint256",
          "name": "startTime",
          "type": "uint256"
        },
        {
          "indexed": false,
          "internalType": "uint256",
          "name": "endTime",
          "type": "uint256"
        }
      ],
      "name": "RentalStarted",
      "type": "event"
    },
    {
      "anonymous": false,
      "inputs": [
        {
          "indexed": true,
          "internalType": "address",
          "name": "from",
          "type": "address"
        },
        {
          "indexed": true,
          "internalType": "address",
          "name": "to",
          "type": "address"
        },
        {
          "indexed": true,
          "internalType": "uint256",
          "name": "tokenId",
          "type": "uint256"
        }
      ],
      "name": "Transfer",
      "type": "event"
    },
    {
      "inputs": [
        {
          "internalType": "address",
          "name": "to",
          "type": "address"
        },
        {
          "internalType": "uint256",
          "name": "tokenId",
          "type": "uint256"
        }
      ],
      "name": "approve",
      "outputs": [],
      "stateMutability": "nonpayable",
      "type": "function"
    },
    {
      "inputs": [
        {
          "internalType": "address",
          "name": "owner",
          "type": "address"
        }
      ],
      "name": "balanceOf",
      "outputs": [
        {
          "internalType": "uint256",
          "name": "",
          "type": "uint256"
        }
      ],
      "stateMutability": "view",
      "type": "function"
    },
    {
      "inputs": [
        {
          "internalType": "uint256",
          "name": "tokenId",
          "type": "uint256"
        },
        {
          "internalType": "uint256",
          "name": "duration",
          "type": "uint256"
        },
        {
          "internalType": "uint256",
          "name": "deposit",
          "type": "uint256"
        }
      ],
      "name": "createRental",
      "outputs": [],
      "stateMutability": "nonpayable",
      "type": "function"
    },
    {
      "inputs": [
        {
          "internalType": "uint256",
          "name": "tokenId",
          "type": "uint256"
        }
      ],
      "name": "endRental",
      "outputs": [],
      "stateMutability": "nonpayable",
      "type": "function"
    },
    {
      "inputs": [
        {
          "internalType": "address",
          "name": "",
          "type": "address"
        }
      ],
      "name": "escrow",
      "outputs": [
        {
          "internalType": "uint256",
          "name": "",
          "type": "uint256"
        }
      ],
      "stateMutability": "view",
      "type": "function"
    },
    {
      "inputs": [
        {
          "internalType": "uint256",
          "name": "tokenId",
          "type": "uint256"
        },
        {
          "internalType": "uint256",
          "name": "additionalDuration",
          "type": "uint256"
        }
      ],
      "name": "extendRental",
      "outputs": [],
      "stateMutability": "nonpayable",
      "type": "function"
    },
    {
      "inputs": [
        {
          "internalType": "uint256",
          "name": "tokenId",
          "type": "uint256"
        }
      ],
      "name": "getApproved",
      "outputs": [
        {
          "internalType": "address",
          "name": "",
          "type": "address"
        }
      ],
      "stateMutability": "view",
      "type": "function"
    },
    {
      "inputs": [
        {
          "internalType": "address",
          "name": "owner",
          "type": "address"
        },
        {
          "internalType": "address",
          "name": "operator",
          "type": "address"
        }
      ],
      "name": "isApprovedForAll",
      "outputs": [
        {
          "internalType": "bool",
          "name": "",
          "type": "bool"
        }
      ],
      "stateMutability": "view",
      "type": "function"
    },
    {
      "inputs": [
        {
          "internalType": "address",
          "name": "to",
          "type": "address"
        }
      ],
      "name": "mintNFT",
      "outputs": [],
      "stateMutability": "nonpayable",
      "type": "function"
    },
    {
      "inputs": [],
      "name": "name",
      "outputs": [
        {
          "internalType": "string",
          "name": "",
          "type": "string"
        }
      ],
      "stateMutability": "view",
      "type": "function"
    },
    {
      "inputs": [],
      "name": "owner",
      "outputs": [
        {
          "internalType": "address",
          "name": "",
          "type": "address"
        }
      ],
      "stateMutability": "view",
      "type": "function"
    },
    {
      "inputs": [
        {
          "internalType": "uint256",
          "name": "tokenId",
          "type": "uint256"
        }
      ],
      "name": "ownerOf",
      "outputs": [
        {
          "internalType": "address",
          "name": "",
          "type": "address"
        }
      ],
      "stateMutability": "view",
      "type": "function"
    },
    {
      "inputs": [
        {
          "internalType": "uint256",
          "name": "tokenId",
          "type": "uint256"
        }
      ],
      "name": "reclaimNFT",
      "outputs": [],
      "stateMutability": "nonpayable",
      "type": "function"
    },
    {
      "inputs": [],
      "name": "renounceOwnership",
      "outputs": [],
      "stateMutability": "nonpayable",
      "type": "function"
    },
    {
      "inputs": [
        {
          "internalType": "uint256",
          "name": "",
          "type": "uint256"
        }
      ],
      "name": "rentals",
      "outputs": [
        {
          "internalType": "address",
          "name": "renter",
          "type": "address"
        },
        {
          "internalType": "uint256",
          "name": "tokenId",
          "type": "uint256"
        },
        {
          "internalType": "uint256",
          "name": "startTime",
          "type": "uint256"
        },
        {
          "internalType": "uint256",
          "name": "endTime",
          "type": "uint256"
        },
        {
          "internalType": "uint256",
          "name": "deposit",
          "type": "uint256"
        }
      ],
      "stateMutability": "view",
      "type": "function"
    },
    {
      "inputs": [
        {
          "internalType": "address",
          "name": "from",
          "type": "address"
        },
        {
          "internalType": "address",
          "name": "to",
          "type": "address"
        },
        {
          "internalType": "uint256",
          "name": "tokenId",
          "type": "uint256"
        }
      ],
      "name": "safeTransferFrom",
      "outputs": [],
      "stateMutability": "nonpayable",
      "type": "function"
    },
    {
      "inputs": [
        {
          "internalType": "address",
          "name": "from",
          "type": "address"
        },
        {
          "internalType": "address",
          "name": "to",
          "type": "address"
        },
        {
          "internalType": "uint256",
          "name": "tokenId",
          "type": "uint256"
        },
        {
          "internalType": "bytes",
          "name": "data",
          "type": "bytes"
        }
      ],
      "name": "safeTransferFrom",
      "outputs": [],
      "stateMutability": "nonpayable",
      "type": "function"
    },
    {
      "inputs": [
        {
          "internalType": "address",
          "name": "operator",
          "type": "address"
        },
        {
          "internalType": "bool",
          "name": "approved",
          "type": "bool"
        }
      ],
      "name": "setApprovalForAll",
      "outputs": [],
      "stateMutability": "nonpayable",
      "type": "function"
    },
    {
      "inputs": [
        {
          "internalType": "uint256",
          "name": "tokenId",
          "type": "uint256"
        }
      ],
      "name": "startRental",
      "outputs": [],
      "stateMutability": "payable",
      "type": "function"
    },
    {
      "inputs": [
        {
          "internalType": "bytes4",
          "name": "interfaceId",
          "type": "bytes4"
        }
      ],
      "name": "supportsInterface",
      "outputs": [
        {
          "internalType": "bool",
          "name": "",
          "type": "bool"
        }
      ],
      "stateMutability": "view",
      "type": "function"
    },
    {
      "inputs": [],
      "name": "symbol",
      "outputs": [
        {
          "internalType": "string",
          "name": "",
          "type": "string"
        }
      ],
      "stateMutability": "view",
      "type": "function"
    },
    {
      "inputs": [
        {
          "internalType": "uint256",
          "name": "tokenId",
          "type": "uint256"
        }
      ],
      "name": "tokenURI",
      "outputs": [
        {
          "internalType": "string",
          "name": "",
          "type": "string"
        }
      ],
      "stateMutability": "view",
      "type": "function"
    },
    {
      "inputs": [
        {
          "internalType": "address",
          "name": "from",
          "type": "address"
        },
        {
          "internalType": "address",
          "name": "to",
          "type": "address"
        },
        {
          "internalType": "uint256",
          "name": "tokenId",
          "type": "uint256"
        }
      ],
      "name": "transferFrom",
      "outputs": [],
      "stateMutability": "nonpayable",
      "type": "function"
    },
    {
      "inputs": [
        {
          "internalType": "address",
          "name": "newOwner",
          "type": "address"
        }
      ],
      "name": "transferOwnership",
      "outputs": [],
      "stateMutability": "nonpayable",
      "type": "function"
    }
  ],
  "bytecode": "0x60806040523480156200001157600080fd5b506040518060400160405280600981526020017f52656e74616c4e465400000000000000000000000000000000000000000000008152506040518060400160405280600381526020017f524e54000000000000000000000000000000000000000000000000000000000081525081600090816200008f919062000422565b508060019081620000a1919062000422565b505050620000c4620000b8620000da60201b60201c565b620000e260201b60201c565b60016007819055506000600a8190555062000509565b600033905090565b6000600660009054906101000a900473ffffffffffffffffffffffffffffffffffffffff16905081600660006101000a81548173ffffffffffffffffffffffffffffffffffffffff021916908373ffffffffffffffffffffffffffffffffffffffff1602179055508173ffffffffffffffffffffffffffffffffffffffff168173ffffffffffffffffffffffffffffffffffffffff167f8be0079c531659141344cd1fd0a4f28419497f9722a3daafe3b4186f6b6457e060405160405180910390a35050565b600081519050919050565b7f4e487b7100000000000000000000000000000000000000000000000000000000600052604160045260246000fd5b7f4e487b7100000000000000000000000000000000000000000000000000000000600052602260045260246000fd5b600060028204905060018216806200022a57607f821691505b60208210810362000240576200023f620001e2565b5b50919050565b60008190508160005260206000209050919050565b60006020601f8301049050919050565b600082821b905092915050565b600060088302620002aa7fffffffffffffffffffffffffffffffffffffffffffffffffffffffffffffffff826200026b565b620002b686836200026b565b95508019841693508086168417925050509392505050565b6000819050919050565b6000819050919050565b600062000303620002fd620002f784620002ce565b620002d8565b620002ce565b9050919050565b6000819050919050565b6200031f83620002e2565b620003376200032e826200030a565b84845462000278565b825550505050565b600090565b6200034e6200033f565b6200035b81848462000314565b505050565b5b8181101562000383576200037760008262000344565b60018101905062000361565b5050565b601f821115620003d2576200039c8162000246565b620003a7846200025b565b81016020851015620003b7578190505b620003cf620003c6856200025b565b83018262000360565b50505b505050565b600082821c905092915050565b6000620003f760001984600802620003d7565b1980831691505092915050565b6000620004128383620003e4565b9150826002028217905092915050565b6200042d82620001a8565b67ffffffffffffffff811115620004495762000448620001b3565b5b62000455825462000211565b6200046282828562000387565b600060209050601f8311600181146200049a576000841562000485578287015190505b62000491858262000404565b86555062000501565b601f198416620004aa8662000246565b60005b82811015620004d457848901518255600182019150602085019450602081019050620004ad565b86831015620004f45784890151620004f0601f891682620003e4565b8355505b6001600288020188555050505b505050505050565b613b4980620005196000396000f3fe60806040526004361061014b5760003560e01c8063715018a6116100b6578063a22cb4651161006f578063a22cb4651461047d578063af94a1d1146104a6578063b88d4fde146104e7578063c87b56dd14610510578063e985e9c51461054d578063f2fde38b1461058a5761014b565b8063715018a6146103955780638da5cb5b146103ac578063951fec27146103d757806395d89b411461040057806397491d6f1461042b578063a08db82e146104545761014b565b806323b872dd1161010857806323b872dd1461026357806342842e0e1461028c57806354ba0f27146102b557806357d3c7c3146102de5780636352211e1461031b57806370a08231146103585761014b565b806301ffc9a71461015057806306fdde031461018d578063081812fc146101b8578063095ea7b3146101f55780630c3e1dd01461021e5780631744cce81461023a575b600080fd5b34801561015c57600080fd5b5061017760048036038101906101729190612865565b6105b3565b60405161018491906128ad565b60405180910390f35b34801561019957600080fd5b506101a2610695565b6040516101af9190612958565b60405180910390f35b3480156101c457600080fd5b506101df60048036038101906101da91906129b0565b610727565b6040516101ec9190612a1e565b60405180910390f35b34801561020157600080fd5b5061021c60048036038101906102179190612a65565b61076d565b005b610238600480360381019061023391906129b0565b610884565b005b34801561024657600080fd5b50610261600480360381019061025c9190612aa5565b610aac565b005b34801561026f57600080fd5b5061028a60048036038101906102859190612af8565b610c9a565b005b34801561029857600080fd5b506102b360048036038101906102ae9190612af8565b610cfa565b005b3480156102c157600080fd5b506102dc60048036038101906102d79190612b4b565b610d1a565b005b3480156102ea57600080fd5b5061030560048036038101906103009190612b4b565b610d99565b6040516103129190612b87565b60405180910390f35b34801561032757600080fd5b50610342600480360381019061033d91906129b0565b610db1565b60405161034f9190612a1e565b60405180910390f35b34801561036457600080fd5b5061037f600480360381019061037a9190612b4b565b610e37565b60405161038c9190612b87565b60405180910390f35b3480156103a157600080fd5b506103aa610eee565b005b3480156103b857600080fd5b506103c1610f02565b6040516103ce9190612a1e565b60405180910390f35b3480156103e357600080fd5b506103fe60048036038101906103f99190612ba2565b610f2c565b005b34801561040c57600080fd5b50610415610ff5565b6040516104229190612958565b60405180910390f35b34801561043757600080fd5b50610452600480360381019061044d91906129b0565b611087565b005b34801561046057600080fd5b5061047b600480360381019061047691906129b0565b611312565b005b34801561048957600080fd5b506104a4600480360381019061049f9190612c0e565b61156c565b005b3480156104b257600080fd5b506104cd60048036038101906104c891906129b0565b611582565b6040516104de959493929190612c4e565b60405180910390f35b3480156104f357600080fd5b5061050e60048036038101906105099190612dd6565b6115d8565b005b34801561051c57600080fd5b50610537600480360381019061053291906129b0565b61163a565b6040516105449190612958565b60405180910390f35b34801561055957600080fd5b50610574600480360381019061056f9190612e59565b6116a2565b60405161058191906128ad565b60405180910390f35b34801561059657600080fd5b506105b160048036038101906105ac9190612b4b565b611736565b005b60007f80ac58cd000000000000000000000000000000000000000000000000000000007bffffffffffffffffffffffffffffffffffffffffffffffffffffffff1916827bffffffffffffffffffffffffffffffffffffffffffffffffffffffff1916148061067e57507f5b5e139f000000000000000000000000000000000000000000000000000000007bffffffffffffffffffffffffffffffffffffffffffffffffffffffff1916827bffffffffffffffffffffffffffffffffffffffffffffffffffffffff1916145b8061068e575061068d826117b9565b5b9050919050565b6060600080546106a490612ec8565b80601f01602080910402602001604051908101604052809291908181526020018280546106d090612ec8565b801561071d5780601f106106f25761010080835404028352916020019161071d565b820191906000526020600020905b81548152906001019060200180831161070057829003601f168201915b5050505050905090565b600061073282611823565b6004600083815260200190815260200160002060009054906101000a900473ffffffffffffffffffffffffffffffffffffffff169050919050565b600061077882610db1565b90508073ffffffffffffffffffffffffffffffffffffffff168373ffffffffffffffffffffffffffffffffffffffff16036107e8576040517f08c379a00000000000000000000000000000000000000000000000000000000081526004016107df90612f6b565b60405180910390fd5b8073ffffffffffffffffffffffffffffffffffffffff1661080761186e565b73ffffffffffffffffffffffffffffffffffffffff16148061083657506108358161083061186e565b6116a2565b5b610875576040517f08c379a000000000000000000000000000000000000000000000000000000000815260040161086c90612ffd565b60405180910390fd5b61087f8383611876565b505050565b600073ffffffffffffffffffffffffffffffffffffffff166008600083815260200190815260200160002060000160009054906101000a900473ffffffffffffffffffffffffffffffffffffffff1673ffffffffffffffffffffffffffffffffffffffff1614610929576040517f08c379a000000000000000000000000000000000000000000000000000000000815260040161092090613069565b60405180910390fd5b60086000828152602001908152602001600020600401543414610981576040517f08c379a0000000000000000000000000000000000000000000000000000000008152600401610978906130d5565b60405180910390fd5b336008600083815260200190815260200160002060000160006101000a81548173ffffffffffffffffffffffffffffffffffffffff021916908373ffffffffffffffffffffffffffffffffffffffff16021790555034600960003373ffffffffffffffffffffffffffffffffffffffff1673ffffffffffffffffffffffffffffffffffffffff1681526020019081526020016000206000828254610a259190613124565b92505081905550803373ffffffffffffffffffffffffffffffffffffffff167fd337da8cf9108ed06d1b5581f9935010afc34f003b7fd3e5428d2d45696809ee60086000858152602001908152602001600020600201546008600086815260200190815260200160002060030154604051610aa1929190613158565b60405180910390a350565b3373ffffffffffffffffffffffffffffffffffffffff16610acc84610db1565b73ffffffffffffffffffffffffffffffffffffffff1614610b22576040517f08c379a0000000000000000000000000000000000000000000000000000000008152600401610b19906131cd565b60405180910390fd5b600073ffffffffffffffffffffffffffffffffffffffff166008600085815260200190815260200160002060000160009054906101000a900473ffffffffffffffffffffffffffffffffffffffff1673ffffffffffffffffffffffffffffffffffffffff1614610bc7576040517f08c379a0000000000000000000000000000000000000000000000000000000008152600401610bbe90613069565b60405180910390fd5b6040518060a00160405280600073ffffffffffffffffffffffffffffffffffffffff1681526020018481526020014281526020018342610c079190613124565b8152602001828152506008600085815260200190815260200160002060008201518160000160006101000a81548173ffffffffffffffffffffffffffffffffffffffff021916908373ffffffffffffffffffffffffffffffffffffffff16021790555060208201518160010155604082015181600201556060820151816003015560808201518160040155905050505050565b610cab610ca561186e565b8261192f565b610cea576040517f08c379a0000000000000000000000000000000000000000000000000000000008152600401610ce19061325f565b60405180910390fd5b610cf58383836119c4565b505050565b610d15838383604051806020016040528060008152506115d8565b505050565b610d22611cbd565b600a6000815480929190610d359061327f565b9190505550610d4681600a54611d3b565b8073ffffffffffffffffffffffffffffffffffffffff167f4cc0a9c4a99ddc700de1af2c9f916a7cbfdb71f14801ccff94061ad1ef8a8040600a54604051610d8e9190612b87565b60405180910390a250565b60096020528060005260406000206000915090505481565b600080610dbd83611f58565b9050600073ffffffffffffffffffffffffffffffffffffffff168173ffffffffffffffffffffffffffffffffffffffff1603610e2e576040517f08c379a0000000000000000000000000000000000000000000000000000000008152600401610e2590613313565b60405180910390fd5b80915050919050565b60008073ffffffffffffffffffffffffffffffffffffffff168273ffffffffffffffffffffffffffffffffffffffff1603610ea7576040517f08c379a0000000000000000000000000000000000000000000000000000000008152600401610e9e906133a5565b60405180910390fd5b600360008373ffffffffffffffffffffffffffffffffffffffff1673ffffffffffffffffffffffffffffffffffffffff168152602001908152602001600020549050919050565b610ef6611cbd565b610f006000611f95565b565b6000600660009054906101000a900473ffffffffffffffffffffffffffffffffffffffff16905090565b60006008600084815260200190815260200160002090503373ffffffffffffffffffffffffffffffffffffffff168160000160009054906101000a900473ffffffffffffffffffffffffffffffffffffffff1673ffffffffffffffffffffffffffffffffffffffff1614610fd5576040517f08c379a0000000000000000000000000000000000000000000000000000000008152600401610fcc90613411565b60405180910390fd5b81816003016000828254610fe99190613124565b92505081905550505050565b60606001805461100490612ec8565b80601f016020809104026020016040519081016040528092919081815260200182805461103090612ec8565b801561107d5780601f106110525761010080835404028352916020019161107d565b820191906000526020600020905b81548152906001019060200180831161106057829003601f168201915b5050505050905090565b61108f61205b565b60006008600083815260200190815260200160002090503373ffffffffffffffffffffffffffffffffffffffff168160000160009054906101000a900473ffffffffffffffffffffffffffffffffffffffff1673ffffffffffffffffffffffffffffffffffffffff1614611138576040517f08c379a000000000000000000000000000000000000000000000000000000000815260040161112f90613411565b60405180910390fd5b806003015442101561117f576040517f08c379a00000000000000000000000000000000000000000000000000000000081526004016111769061347d565b60405180910390fd5b60008160040154905080600960003373ffffffffffffffffffffffffffffffffffffffff1673ffffffffffffffffffffffffffffffffffffffff16815260200190815260200160002060008282546111d7919061349d565b925050819055503373ffffffffffffffffffffffffffffffffffffffff166108fc829081150290604051600060405180830381858888f19350505050158015611224573d6000803e3d6000fd5b5060008260000160006101000a81548173ffffffffffffffffffffffffffffffffffffffff021916908373ffffffffffffffffffffffffffffffffffffffff160217905550823373ffffffffffffffffffffffffffffffffffffffff167f67bccac3b42f70a97e09e1757d9b523fc57f82f2c7168e7e5d6179af35be9ca0426040516112b09190612b87565b60405180910390a36112c1836120aa565b823373ffffffffffffffffffffffffffffffffffffffff167fa02c1717f7ef594488b1db41118fff4bfdceefac0f4d5198a9d67482a13010b260405160405180910390a3505061130f6121f8565b50565b61131a611cbd565b6000600860008381526020019081526020016000209050600073ffffffffffffffffffffffffffffffffffffffff168160000160009054906101000a900473ffffffffffffffffffffffffffffffffffffffff1673ffffffffffffffffffffffffffffffffffffffff16036113c4576040517f08c379a00000000000000000000000000000000000000000000000000000000081526004016113bb9061351d565b60405180910390fd5b60008160040154905080600960008460000160009054906101000a900473ffffffffffffffffffffffffffffffffffffffff1673ffffffffffffffffffffffffffffffffffffffff1673ffffffffffffffffffffffffffffffffffffffff1681526020019081526020016000206000828254611440919061349d565b925050819055508160000160009054906101000a900473ffffffffffffffffffffffffffffffffffffffff1673ffffffffffffffffffffffffffffffffffffffff166108fc829081150290604051600060405180830381858888f193505050501580156114b1573d6000803e3d6000fd5b5060008260000160006101000a81548173ffffffffffffffffffffffffffffffffffffffff021916908373ffffffffffffffffffffffffffffffffffffffff1602179055506114ff836120aa565b828260000160009054906101000a900473ffffffffffffffffffffffffffffffffffffffff1673ffffffffffffffffffffffffffffffffffffffff167fa02c1717f7ef594488b1db41118fff4bfdceefac0f4d5198a9d67482a13010b260405160405180910390a3505050565b61157e61157761186e565b8383612202565b5050565b60086020528060005260406000206000915090508060000160009054906101000a900473ffffffffffffffffffffffffffffffffffffffff16908060010154908060020154908060030154908060040154905085565b6115e96115e361186e565b8361192f565b611628576040517f08c379a000000000000000000000000000000000000000000000000000000000815260040161161f9061325f565b60405180910390fd5b6116348484848461236e565b50505050565b606061164582611823565b600061164f6123ca565b9050600081511161166f576040518060200160405280600081525061169a565b80611679846123e1565b60405160200161168a929190613579565b6040516020818303038152906040525b915050919050565b6000600560008473ffffffffffffffffffffffffffffffffffffffff1673ffffffffffffffffffffffffffffffffffffffff16815260200190815260200160002060008373ffffffffffffffffffffffffffffffffffffffff1673ffffffffffffffffffffffffffffffffffffffff16815260200190815260200160002060009054906101000a900460ff16905092915050565b61173e611cbd565b600073ffffffffffffffffffffffffffffffffffffffff168173ffffffffffffffffffffffffffffffffffffffff16036117ad576040517f08c379a00000000000000000000000000000000000000000000000000000000081526004016117a49061360f565b60405180910390fd5b6117b681611f95565b50565b60007f01ffc9a7000000000000000000000000000000000000000000000000000000007bffffffffffffffffffffffffffffffffffffffffffffffffffffffff1916827bffffffffffffffffffffffffffffffffffffffffffffffffffffffff1916149050919050565b61182c816124af565b61186b576040517f08c379a000000000000000000000000000000000000000000000000000000000815260040161186290613313565b60405180910390fd5b50565b600033905090565b816004600083815260200190815260200160002060006101000a81548173ffffffffffffffffffffffffffffffffffffffff021916908373ffffffffffffffffffffffffffffffffffffffff160217905550808273ffffffffffffffffffffffffffffffffffffffff166118e983610db1565b73ffffffffffffffffffffffffffffffffffffffff167f8c5be1e5ebec7d5bd14f71427d1e84f3dd0314c0f7b2291e5b200ac8c7c3b92560405160405180910390a45050565b60008061193b83610db1565b90508073ffffffffffffffffffffffffffffffffffffffff168473ffffffffffffffffffffffffffffffffffffffff16148061197d575061197c81856116a2565b5b806119bb57508373ffffffffffffffffffffffffffffffffffffffff166119a384610727565b73ffffffffffffffffffffffffffffffffffffffff16145b91505092915050565b8273ffffffffffffffffffffffffffffffffffffffff166119e482610db1565b73ffffffffffffffffffffffffffffffffffffffff1614611a3a576040517f08c379a0000000000000000000000000000000000000000000000000000000008152600401611a31906136a1565b60405180910390fd5b600073ffffffffffffffffffffffffffffffffffffffff168273ffffffffffffffffffffffffffffffffffffffff1603611aa9576040517f08c379a0000000000000000000000000000000000000000000000000000000008152600401611aa090613733565b60405180910390fd5b611ab683838360016124f0565b8273ffffffffffffffffffffffffffffffffffffffff16611ad682610db1565b73ffffffffffffffffffffffffffffffffffffffff1614611b2c576040517f08c379a0000000000000000000000000000000000000000000000000000000008152600401611b23906136a1565b60405180910390fd5b6004600082815260200190815260200160002060006101000a81549073ffffffffffffffffffffffffffffffffffffffff02191690556001600360008573ffffffffffffffffffffffffffffffffffffffff1673ffffffffffffffffffffffffffffffffffffffff168152602001908152602001600020600082825403925050819055506001600360008473ffffffffffffffffffffffffffffffffffffffff1673ffffffffffffffffffffffffffffffffffffffff16815260200190815260200160002060008282540192505081905550816002600083815260200190815260200160002060006101000a81548173ffffffffffffffffffffffffffffffffffffffff021916908373ffffffffffffffffffffffffffffffffffffffff160217905550808273ffffffffffffffffffffffffffffffffffffffff168473ffffffffffffffffffffffffffffffffffffffff167fddf252ad1be2c89b69c2b068fc378daa952ba7f163c4a11628f55a4df523b3ef60405160405180910390a4611cb883838360016124f6565b505050565b611cc561186e565b73ffffffffffffffffffffffffffffffffffffffff16611ce3610f02565b73ffffffffffffffffffffffffffffffffffffffff1614611d39576040517f08c379a0000000000000000000000000000000000000000000000000000000008152600401611d309061379f565b60405180910390fd5b565b600073ffffffffffffffffffffffffffffffffffffffff168273ffffffffffffffffffffffffffffffffffffffff1603611daa576040517f08c379a0000000000000000000000000000000000000000000000000000000008152600401611da19061380b565b60405180910390fd5b611db3816124af565b15611df3576040517f08c379a0000000000000000000000000000000000000000000000000000000008152600401611dea90613877565b60405180910390fd5b611e016000838360016124f0565b611e0a816124af565b15611e4a576040517f08c379a0000000000000000000000000000000000000000000000000000000008152600401611e4190613877565b60405180910390fd5b6001600360008473ffffffffffffffffffffffffffffffffffffffff1673ffffffffffffffffffffffffffffffffffffffff16815260200190815260200160002060008282540192505081905550816002600083815260200190815260200160002060006101000a81548173ffffffffffffffffffffffffffffffffffffffff021916908373ffffffffffffffffffffffffffffffffffffffff160217905550808273ffffffffffffffffffffffffffffffffffffffff16600073ffffffffffffffffffffffffffffffffffffffff167fddf252ad1be2c89b69c2b068fc378daa952ba7f163c4a11628f55a4df523b3ef60405160405180910390a4611f546000838360016124f6565b5050565b60006002600083815260200190815260200160002060009054906101000a900473ffffffffffffffffffffffffffffffffffffffff169050919050565b6000600660009054906101000a900473ffffffffffffffffffffffffffffffffffffffff16905081600660006101000a81548173ffffffffffffffffffffffffffffffffffffffff021916908373ffffffffffffffffffffffffffffffffffffffff1602179055508173ffffffffffffffffffffffffffffffffffffffff168173ffffffffffffffffffffffffffffffffffffffff167f8be0079c531659141344cd1fd0a4f28419497f9722a3daafe3b4186f6b6457e060405160405180910390a35050565b6002600754036120a0576040517f08c379a0000000000000000000000000000000000000000000000000000000008152600401612097906138e3565b60405180910390fd5b6002600781905550565b60006120b582610db1565b90506120c58160008460016124f0565b6120ce82610db1565b90506004600083815260200190815260200160002060006101000a81549073ffffffffffffffffffffffffffffffffffffffff02191690556001600360008373ffffffffffffffffffffffffffffffffffffffff1673ffffffffffffffffffffffffffffffffffffffff168152602001908152602001600020600082825403925050819055506002600083815260200190815260200160002060006101000a81549073ffffffffffffffffffffffffffffffffffffffff021916905581600073ffffffffffffffffffffffffffffffffffffffff168273ffffffffffffffffffffffffffffffffffffffff167fddf252ad1be2c89b69c2b068fc378daa952ba7f163c4a11628f55a4df523b3ef60405160405180910390a46121f48160008460016124f6565b5050565b6001600781905550565b8173ffffffffffffffffffffffffffffffffffffffff168373ffffffffffffffffffffffffffffffffffffffff1603612270576040517f08c379a00000000000000000000000000000000000000000000000000000000081526004016122679061394f565b60405180910390fd5b80600560008573ffffffffffffffffffffffffffffffffffffffff1673ffffffffffffffffffffffffffffffffffffffff16815260200190815260200160002060008473ffffffffffffffffffffffffffffffffffffffff1673ffffffffffffffffffffffffffffffffffffffff16815260200190815260200160002060006101000a81548160ff0219169083151502179055508173ffffffffffffffffffffffffffffffffffffffff168373ffffffffffffffffffffffffffffffffffffffff167f17307eab39ab6107e8899845ad3d59bd9653f200f220920489ca2b5937696c318360405161236191906128ad565b60405180910390a3505050565b6123798484846119c4565b612385848484846124fc565b6123c4576040517f08c379a00000000000000000000000000000000000000000000000000000000081526004016123bb906139e1565b60405180910390fd5b50505050565b606060405180602001604052806000815250905090565b6060600060016123f084612683565b01905060008167ffffffffffffffff81111561240f5761240e612cab565b5b6040519080825280601f01601f1916602001820160405280156124415781602001600182028036833780820191505090505b509050600082602001820190505b6001156124a4578080600190039150507f3031323334353637383961626364656600000000000000000000000000000000600a86061a8153600a858161249857612497613a01565b5b0494506000850361244f575b819350505050919050565b60008073ffffffffffffffffffffffffffffffffffffffff166124d183611f58565b73ffffffffffffffffffffffffffffffffffffffff1614159050919050565b50505050565b50505050565b600061251d8473ffffffffffffffffffffffffffffffffffffffff166127d6565b15612676578373ffffffffffffffffffffffffffffffffffffffff1663150b7a0261254661186e565b8786866040518563ffffffff1660e01b81526004016125689493929190613a85565b6020604051808303816000875af19250505080156125a457506040513d601f19601f820116820180604052508101906125a19190613ae6565b60015b612626573d80600081146125d4576040519150601f19603f3d011682016040523d82523d6000602084013e6125d9565b606091505b50600081510361261e576040517f08c379a0000000000000000000000000000000000000000000000000000000008152600401612615906139e1565b60405180910390fd5b805181602001fd5b63150b7a0260e01b7bffffffffffffffffffffffffffffffffffffffffffffffffffffffff1916817bffffffffffffffffffffffffffffffffffffffffffffffffffffffff19161491505061267b565b600190505b949350505050565b600080600090507a184f03e93ff9f4daa797ed6e38ed64bf6a1f01000000000000000083106126e1577a184f03e93ff9f4daa797ed6e38ed64bf6a1f01000000000000000083816126d7576126d6613a01565b5b0492506040810190505b6d04ee2d6d415b85acef8100000000831061271e576d04ee2d6d415b85acef8100000000838161271457612713613a01565b5b0492506020810190505b662386f26fc10000831061274d57662386f26fc10000838161274357612742613a01565b5b0492506010810190505b6305f5e1008310612776576305f5e100838161276c5761276b613a01565b5b0492506008810190505b612710831061279b57612710838161279157612790613a01565b5b0492506004810190505b606483106127be57606483816127b4576127b3613a01565b5b0492506002810190505b600a83106127cd576001810190505b80915050919050565b6000808273ffffffffffffffffffffffffffffffffffffffff163b119050919050565b6000604051905090565b600080fd5b600080fd5b60007fffffffff0000000000000000000000000000000000000000000000000000000082169050919050565b6128428161280d565b811461284d57600080fd5b50565b60008135905061285f81612839565b92915050565b60006020828403121561287b5761287a612803565b5b600061288984828501612850565b91505092915050565b60008115159050919050565b6128a781612892565b82525050565b60006020820190506128c2600083018461289e565b92915050565b600081519050919050565b600082825260208201905092915050565b60005b838110156129025780820151818401526020810190506128e7565b60008484015250505050565b6000601f19601f8301169050919050565b600061292a826128c8565b61293481856128d3565b93506129448185602086016128e4565b61294d8161290e565b840191505092915050565b60006020820190508181036000830152612972818461291f565b905092915050565b6000819050919050565b61298d8161297a565b811461299857600080fd5b50565b6000813590506129aa81612984565b92915050565b6000602082840312156129c6576129c5612803565b5b60006129d48482850161299b565b91505092915050565b600073ffffffffffffffffffffffffffffffffffffffff82169050919050565b6000612a08826129dd565b9050919050565b612a18816129fd565b82525050565b6000602082019050612a336000830184612a0f565b92915050565b612a42816129fd565b8114612a4d57600080fd5b50565b600081359050612a5f81612a39565b92915050565b60008060408385031215612a7c57612a7b612803565b5b6000612a8a85828601612a50565b9250506020612a9b8582860161299b565b9150509250929050565b600080600060608486031215612abe57612abd612803565b5b6000612acc8682870161299b565b9350506020612add8682870161299b565b9250506040612aee8682870161299b565b9150509250925092565b600080600060608486031215612b1157612b10612803565b5b6000612b1f86828701612a50565b9350506020612b3086828701612a50565b9250506040612b418682870161299b565b9150509250925092565b600060208284031215612b6157612b60612803565b5b6000612b6f84828501612a50565b91505092915050565b612b818161297a565b82525050565b6000602082019050612b9c6000830184612b78565b92915050565b60008060408385031215612bb957612bb8612803565b5b6000612bc78582860161299b565b9250506020612bd88582860161299b565b9150509250929050565b612beb81612892565b8114612bf657600080fd5b50565b600081359050612c0881612be2565b92915050565b60008060408385031215612c2557612c24612803565b5b6000612c3385828601612a50565b9250506020612c4485828601612bf9565b9150509250929050565b600060a082019050612c636000830188612a0f565b612c706020830187612b78565b612c7d6040830186612b78565b612c8a6060830185612b78565b612c976080830184612b78565b9695505050505050565b600080fd5b600080fd5b7f4e487b7100000000000000000000000000000000000000000000000000000000600052604160045260246000fd5b612ce38261290e565b810181811067ffffffffffffffff82111715612d0257612d01612cab565b5b80604052505050565b6000612d156127f9565b9050612d218282612cda565b919050565b600067ffffffffffffffff821115612d4157612d40612cab565b5b612d4a8261290e565b9050602081019050919050565b82818337600083830152505050565b6000612d79612d7484612d26565b612d0b565b905082815260208101848484011115612d9557612d94612ca6565b5b612da0848285612d57565b509392505050565b600082601f830112612dbd57612dbc612ca1565b5b8135612dcd848260208601612d66565b91505092915050565b60008060008060808587031215612df057612def612803565b5b6000612dfe87828801612a50565b9450506020612e0f87828801612a50565b9350506040612e208782880161299b565b925050606085013567ffffffffffffffff811115612e4157612e40612808565b5b612e4d87828801612da8565b91505092959194509250565b60008060408385031215612e7057612e6f612803565b5b6000612e7e85828601612a50565b9250506020612e8f85828601612a50565b9150509250929050565b7f4e487b7100000000000000000000000000000000000000000000000000000000600052602260045260246000fd5b60006002820490506001821680612ee057607f821691505b602082108103612ef357612ef2612e99565b5b50919050565b7f4552433732313a20617070726f76616c20746f2063757272656e74206f776e6560008201527f7200000000000000000000000000000000000000000000000000000000000000602082015250565b6000612f556021836128d3565b9150612f6082612ef9565b604082019050919050565b60006020820190508181036000830152612f8481612f48565b9050919050565b7f4552433732313a20617070726f76652063616c6c6572206973206e6f7420746f60008201527f6b656e206f776e6572206f7220617070726f76656420666f7220616c6c000000602082015250565b6000612fe7603d836128d3565b9150612ff282612f8b565b604082019050919050565b6000602082019050818103600083015261301681612fda565b9050919050565b7f546f6b656e20616c72656164792072656e746564000000000000000000000000600082015250565b60006130536014836128d3565b915061305e8261301d565b602082019050919050565b6000602082019050818103600083015261308281613046565b9050919050565b7f496e636f7272656374206465706f736974000000000000000000000000000000600082015250565b60006130bf6011836128d3565b91506130ca82613089565b602082019050919050565b600060208201905081810360008301526130ee816130b2565b9050919050565b7f4e487b7100000000000000000000000000000000000000000000000000000000600052601160045260246000fd5b600061312f8261297a565b915061313a8361297a565b9250828201905080821115613152576131516130f5565b5b92915050565b600060408201905061316d6000830185612b78565b61317a6020830184612b78565b9392505050565b7f4f6e6c79206f776e65722063616e206372656174652072656e74616c73000000600082015250565b60006131b7601d836128d3565b91506131c282613181565b602082019050919050565b600060208201905081810360008301526131e6816131aa565b9050919050565b7f4552433732313a2063616c6c6572206973206e6f7420746f6b656e206f776e6560008201527f72206f7220617070726f76656400000000000000000000000000000000000000602082015250565b6000613249602d836128d3565b9150613254826131ed565b604082019050919050565b600060208201905081810360008301526132788161323c565b9050919050565b600061328a8261297a565b91507fffffffffffffffffffffffffffffffffffffffffffffffffffffffffffffffff82036132bc576132bb6130f5565b5b600182019050919050565b7f4552433732313a20696e76616c696420746f6b656e2049440000000000000000600082015250565b60006132fd6018836128d3565b9150613308826132c7565b602082019050919050565b6000602082019050818103600083015261332c816132f0565b9050919050565b7f4552433732313a2061646472657373207a65726f206973206e6f74206120766160008201527f6c6964206f776e65720000000000000000000000000000000000000000000000602082015250565b600061338f6029836128d3565b915061339a82613333565b604082019050919050565b600060208201905081810360008301526133be81613382565b9050919050565b7f4e6f74207468652072656e746572000000000000000000000000000000000000600082015250565b60006133fb600e836128d3565b9150613406826133c5565b602082019050919050565b6000602082019050818103600083015261342a816133ee565b9050919050565b7f52656e74616c20706572696f64206e6f74206f76657200000000000000000000600082015250565b60006134676016836128d3565b915061347282613431565b602082019050919050565b600060208201905081810360008301526134968161345a565b9050919050565b60006134a88261297a565b91506134b38361297a565b92508282039050818111156134cb576134ca6130f5565b5b92915050565b7f546f6b656e206e6f742072656e74656400000000000000000000000000000000600082015250565b60006135076010836128d3565b9150613512826134d1565b602082019050919050565b60006020820190508181036000830152613536816134fa565b9050919050565b600081905092915050565b6000613553826128c8565b61355d818561353d565b935061356d8185602086016128e4565b80840191505092915050565b60006135858285613548565b91506135918284613548565b91508190509392505050565b7f4f776e61626c653a206e6577206f776e657220697320746865207a65726f206160008201527f6464726573730000000000000000000000000000000000000000000000000000602082015250565b60006135f96026836128d3565b91506136048261359d565b604082019050919050565b60006020820190508181036000830152613628816135ec565b9050919050565b7f4552433732313a207472616e736665722066726f6d20696e636f72726563742060008201527f6f776e6572000000000000000000000000000000000000000000000000000000602082015250565b600061368b6025836128d3565b91506136968261362f565b604082019050919050565b600060208201905081810360008301526136ba8161367e565b9050919050565b7f4552433732313a207472616e7366657220746f20746865207a65726f2061646460008201527f7265737300000000000000000000000000000000000000000000000000000000602082015250565b600061371d6024836128d3565b9150613728826136c1565b604082019050919050565b6000602082019050818103600083015261374c81613710565b9050919050565b7f4f776e61626c653a2063616c6c6572206973206e6f7420746865206f776e6572600082015250565b60006137896020836128d3565b915061379482613753565b602082019050919050565b600060208201905081810360008301526137b88161377c565b9050919050565b7f4552433732313a206d696e7420746f20746865207a65726f2061646472657373600082015250565b60006137f56020836128d3565b9150613800826137bf565b602082019050919050565b60006020820190508181036000830152613824816137e8565b9050919050565b7f4552433732313a20746f6b656e20616c7265616479206d696e74656400000000600082015250565b6000613861601c836128d3565b915061386c8261382b565b602082019050919050565b6000602082019050818103600083015261389081613854565b9050919050565b7f5265656e7472616e637947756172643a207265656e7472616e742063616c6c00600082015250565b60006138cd601f836128d3565b91506138d882613897565b602082019050919050565b600060208201905081810360008301526138fc816138c0565b9050919050565b7f4552433732313a20617070726f766520746f2063616c6c657200000000000000600082015250565b60006139396019836128d3565b915061394482613903565b602082019050919050565b600060208201905081810360008301526139688161392c565b9050919050565b7f4552433732313a207472616e7366657220746f206e6f6e20455243373231526560008201527f63656976657220696d706c656d656e7465720000000000000000000000000000602082015250565b60006139cb6032836128d3565b91506139d68261396f565b604082019050919050565b600060208201905081810360008301526139fa816139be565b9050919050565b7f4e487b7100000000000000000000000000000000000000000000000000000000600052601260045260246000fd5b600081519050919050565b600082825260208201905092915050565b6000613a5782613a30565b613a618185613a3b565b9350613a718185602086016128e4565b613a7a8161290e565b840191505092915050565b6000608082019050613a9a6000830187612a0f565b613aa76020830186612a0f565b613ab46040830185612b78565b8181036060830152613ac68184613a4c565b905095945050505050565b600081519050613ae081612839565b92915050565b600060208284031215613afc57613afb612803565b5b6000613b0a84828501613ad1565b9150509291505056fea26469706673582212207df8426a76a36996b05bcd782132dfee66aed1147eb0d8b2d05f7fe878619e0064736f6c63430008140033",
  "linkReferences": {},
  "deployedLinkReferences": {}
}