{
  "_format": "hh-sol-artifact-1",
  "contractName": "RentalNFT",
  "sourceName": "contracts/RentalNFT.sol",
  "abi": [
    {
      "inputs": [],
      "stateMutability": "nonpayable",
      "type": "constructor"
    },
    {
      "inputs": [
        {
          "internalType": "address",
          "name": "sender",
          "type": "address"
        },
        {
          "internalType": "uint256",
          "name": "tokenId",
          "type": "uint256"
        },
        {
          "internalType": "address",
          "name": "owner",
          "type": "address"
        }
      ],
      "name": "ERC721IncorrectOwner",
      "type": "error"
    },
    {
      "inputs": [
        {
          "internalType": "address",
          "name": "operator",
          "type": "address"
        },
        {
          "internalType": "uint256",
          "name": "tokenId",
          "type": "uint256"
        }
      ],
      "name": "ERC721InsufficientApproval",
      "type": "error"
    },
    {
      "inputs": [
        {
          "internalType": "address",
          "name": "approver",
          "type": "address"
        }
      ],
      "name": "ERC721InvalidApprover",
      "type": "error"
    },
    {
      "inputs": [
        {
          "internalType": "address",
          "name": "operator",
          "type": "address"
        }
      ],
      "name": "ERC721InvalidOperator",
      "type": "error"
    },
    {
      "inputs": [
        {
          "internalType": "address",
          "name": "owner",
          "type": "address"
        }
      ],
      "name": "ERC721InvalidOwner",
      "type": "error"
    },
    {
      "inputs": [
        {
          "internalType": "address",
          "name": "receiver",
          "type": "address"
        }
      ],
      "name": "ERC721InvalidReceiver",
      "type": "error"
    },
    {
      "inputs": [
        {
          "internalType": "address",
          "name": "sender",
          "type": "address"
        }
      ],
      "name": "ERC721InvalidSender",
      "type": "error"
    },
    {
      "inputs": [
        {
          "internalType": "uint256",
          "name": "tokenId",
          "type": "uint256"
        }
      ],
      "name": "ERC721NonexistentToken",
      "type": "error"
    },
    {
      "inputs": [
        {
          "internalType": "address",
          "name": "owner",
          "type": "address"
        }
      ],
      "name": "OwnableInvalidOwner",
      "type": "error"
    },
    {
      "inputs": [
        {
          "internalType": "address",
          "name": "account",
          "type": "address"
        }
      ],
      "name": "OwnableUnauthorizedAccount",
      "type": "error"
    },
    {
      "anonymous": false,
      "inputs": [
        {
          "indexed": true,
          "internalType": "address",
          "name": "owner",
          "type": "address"
        },
        {
          "indexed": true,
          "internalType": "address",
          "name": "approved",
          "type": "address"
        },
        {
          "indexed": true,
          "internalType": "uint256",
          "name": "tokenId",
          "type": "uint256"
        }
      ],
      "name": "Approval",
      "type": "event"
    },
    {
      "anonymous": false,
      "inputs": [
        {
          "indexed": true,
          "internalType": "address",
          "name": "owner",
          "type": "address"
        },
        {
          "indexed": true,
          "internalType": "address",
          "name": "operator",
          "type": "address"
        },
        {
          "indexed": false,
          "internalType": "bool",
          "name": "approved",
          "type": "bool"
        }
      ],
      "name": "ApprovalForAll",
      "type": "event"
    },
    {
      "anonymous": false,
      "inputs": [
        {
          "indexed": true,
          "internalType": "address",
          "name": "previousOwner",
          "type": "address"
        },
        {
          "indexed": true,
          "internalType": "address",
          "name": "newOwner",
          "type": "address"
        }
      ],
      "name": "OwnershipTransferred",
      "type": "event"
    },
    {
      "anonymous": false,
      "inputs": [
        {
          "indexed": true,
          "internalType": "address",
          "name": "from",
          "type": "address"
        },
        {
          "indexed": true,
          "internalType": "address",
          "name": "to",
          "type": "address"
        },
        {
          "indexed": true,
          "internalType": "uint256",
          "name": "tokenId",
          "type": "uint256"
        }
      ],
      "name": "Transfer",
      "type": "event"
    },
    {
      "inputs": [
        {
          "internalType": "address",
          "name": "to",
          "type": "address"
        },
        {
          "internalType": "uint256",
          "name": "tokenId",
          "type": "uint256"
        }
      ],
      "name": "approve",
      "outputs": [],
      "stateMutability": "nonpayable",
      "type": "function"
    },
    {
      "inputs": [
        {
          "internalType": "address",
          "name": "owner",
          "type": "address"
        }
      ],
      "name": "balanceOf",
      "outputs": [
        {
          "internalType": "uint256",
          "name": "",
          "type": "uint256"
        }
      ],
      "stateMutability": "view",
      "type": "function"
    },
    {
      "inputs": [
        {
          "internalType": "uint256",
          "name": "tokenId",
          "type": "uint256"
        }
      ],
      "name": "getApproved",
      "outputs": [
        {
          "internalType": "address",
          "name": "",
          "type": "address"
        }
      ],
      "stateMutability": "view",
      "type": "function"
    },
    {
      "inputs": [
        {
          "internalType": "address",
          "name": "owner",
          "type": "address"
        },
        {
          "internalType": "address",
          "name": "operator",
          "type": "address"
        }
      ],
      "name": "isApprovedForAll",
      "outputs": [
        {
          "internalType": "bool",
          "name": "",
          "type": "bool"
        }
      ],
      "stateMutability": "view",
      "type": "function"
    },
    {
      "inputs": [
        {
          "internalType": "address",
          "name": "to",
          "type": "address"
        }
      ],
      "name": "mintNFT",
      "outputs": [],
      "stateMutability": "nonpayable",
      "type": "function"
    },
    {
      "inputs": [],
      "name": "name",
      "outputs": [
        {
          "internalType": "string",
          "name": "",
          "type": "string"
        }
      ],
      "stateMutability": "view",
      "type": "function"
    },
    {
      "inputs": [],
      "name": "owner",
      "outputs": [
        {
          "internalType": "address",
          "name": "",
          "type": "address"
        }
      ],
      "stateMutability": "view",
      "type": "function"
    },
    {
      "inputs": [
        {
          "internalType": "uint256",
          "name": "tokenId",
          "type": "uint256"
        }
      ],
      "name": "ownerOf",
      "outputs": [
        {
          "internalType": "address",
          "name": "",
          "type": "address"
        }
      ],
      "stateMutability": "view",
      "type": "function"
    },
    {
      "inputs": [],
      "name": "renounceOwnership",
      "outputs": [],
      "stateMutability": "nonpayable",
      "type": "function"
    },
    {
      "inputs": [
        {
          "internalType": "address",
          "name": "from",
          "type": "address"
        },
        {
          "internalType": "address",
          "name": "to",
          "type": "address"
        },
        {
          "internalType": "uint256",
          "name": "tokenId",
          "type": "uint256"
        }
      ],
      "name": "safeTransferFrom",
      "outputs": [],
      "stateMutability": "nonpayable",
      "type": "function"
    },
    {
      "inputs": [
        {
          "internalType": "address",
          "name": "from",
          "type": "address"
        },
        {
          "internalType": "address",
          "name": "to",
          "type": "address"
        },
        {
          "internalType": "uint256",
          "name": "tokenId",
          "type": "uint256"
        },
        {
          "internalType": "bytes",
          "name": "data",
          "type": "bytes"
        }
      ],
      "name": "safeTransferFrom",
      "outputs": [],
      "stateMutability": "nonpayable",
      "type": "function"
    },
    {
      "inputs": [
        {
          "internalType": "address",
          "name": "operator",
          "type": "address"
        },
        {
          "internalType": "bool",
          "name": "approved",
          "type": "bool"
        }
      ],
      "name": "setApprovalForAll",
      "outputs": [],
      "stateMutability": "nonpayable",
      "type": "function"
    },
    {
      "inputs": [
        {
          "internalType": "bytes4",
          "name": "interfaceId",
          "type": "bytes4"
        }
      ],
      "name": "supportsInterface",
      "outputs": [
        {
          "internalType": "bool",
          "name": "",
          "type": "bool"
        }
      ],
      "stateMutability": "view",
      "type": "function"
    },
    {
      "inputs": [],
      "name": "symbol",
      "outputs": [
        {
          "internalType": "string",
          "name": "",
          "type": "string"
        }
      ],
      "stateMutability": "view",
      "type": "function"
    },
    {
      "inputs": [
        {
          "internalType": "uint256",
          "name": "tokenId",
          "type": "uint256"
        }
      ],
      "name": "tokenURI",
      "outputs": [
        {
          "internalType": "string",
          "name": "",
          "type": "string"
        }
      ],
      "stateMutability": "view",
      "type": "function"
    },
    {
      "inputs": [
        {
          "internalType": "address",
          "name": "from",
          "type": "address"
        },
        {
          "internalType": "address",
          "name": "to",
          "type": "address"
        },
        {
          "internalType": "uint256",
          "name": "tokenId",
          "type": "uint256"
        }
      ],
      "name": "transferFrom",
      "outputs": [],
      "stateMutability": "nonpayable",
      "type": "function"
    },
    {
      "inputs": [
        {
          "internalType": "address",
          "name": "newOwner",
          "type": "address"
        }
      ],
      "name": "transferOwnership",
      "outputs": [],
      "stateMutability": "nonpayable",
      "type": "function"
    }
  ],
  "bytecode": "0x60806040523480156200001157600080fd5b50336040518060400160405280600981526020017f52656e74616c4e465400000000000000000000000000000000000000000000008152506040518060400160405280600381526020017f524e540000000000000000000000000000000000000000000000000000000000815250816000908162000090919062000472565b508060019081620000a2919062000472565b505050600073ffffffffffffffffffffffffffffffffffffffff168173ffffffffffffffffffffffffffffffffffffffff16036200011a5760006040517f1e4fbdf70000000000000000000000000000000000000000000000000000000081526004016200011191906200059e565b60405180910390fd5b6200012b816200013260201b60201c565b50620005bb565b6000600660009054906101000a900473ffffffffffffffffffffffffffffffffffffffff16905081600660006101000a81548173ffffffffffffffffffffffffffffffffffffffff021916908373ffffffffffffffffffffffffffffffffffffffff1602179055508173ffffffffffffffffffffffffffffffffffffffff168173ffffffffffffffffffffffffffffffffffffffff167f8be0079c531659141344cd1fd0a4f28419497f9722a3daafe3b4186f6b6457e060405160405180910390a35050565b600081519050919050565b7f4e487b7100000000000000000000000000000000000000000000000000000000600052604160045260246000fd5b7f4e487b7100000000000000000000000000000000000000000000000000000000600052602260045260246000fd5b600060028204905060018216806200027a57607f821691505b60208210810362000290576200028f62000232565b5b50919050565b60008190508160005260206000209050919050565b60006020601f8301049050919050565b600082821b905092915050565b600060088302620002fa7fffffffffffffffffffffffffffffffffffffffffffffffffffffffffffffffff82620002bb565b620003068683620002bb565b95508019841693508086168417925050509392505050565b6000819050919050565b6000819050919050565b6000620003536200034d62000347846200031e565b62000328565b6200031e565b9050919050565b6000819050919050565b6200036f8362000332565b620003876200037e826200035a565b848454620002c8565b825550505050565b600090565b6200039e6200038f565b620003ab81848462000364565b505050565b5b81811015620003d357620003c760008262000394565b600181019050620003b1565b5050565b601f8211156200042257620003ec8162000296565b620003f784620002ab565b8101602085101562000407578190505b6200041f6200041685620002ab565b830182620003b0565b50505b505050565b600082821c905092915050565b6000620004476000198460080262000427565b1980831691505092915050565b600062000462838362000434565b9150826002028217905092915050565b6200047d82620001f8565b67ffffffffffffffff81111562000499576200049862000203565b5b620004a5825462000261565b620004b2828285620003d7565b600060209050601f831160018114620004ea5760008415620004d5578287015190505b620004e1858262000454565b86555062000551565b601f198416620004fa8662000296565b60005b828110156200052457848901518255600182019150602085019450602081019050620004fd565b8683101562000544578489015162000540601f89168262000434565b8355505b6001600288020188555050505b505050505050565b600073ffffffffffffffffffffffffffffffffffffffff82169050919050565b6000620005868262000559565b9050919050565b620005988162000579565b82525050565b6000602082019050620005b560008301846200058d565b92915050565b6120ca80620005cb6000396000f3fe608060405234801561001057600080fd5b506004361061010b5760003560e01c806370a08231116100a2578063a22cb46511610071578063a22cb465146102a4578063b88d4fde146102c0578063c87b56dd146102dc578063e985e9c51461030c578063f2fde38b1461033c5761010b565b806370a082311461022e578063715018a61461025e5780638da5cb5b1461026857806395d89b41146102865761010b565b806323b872dd116100de57806323b872dd146101aa57806342842e0e146101c657806354ba0f27146101e25780636352211e146101fe5761010b565b806301ffc9a71461011057806306fdde0314610140578063081812fc1461015e578063095ea7b31461018e575b600080fd5b61012a6004803603810190610125919061189d565b610358565b60405161013791906118e5565b60405180910390f35b61014861043a565b6040516101559190611990565b60405180910390f35b610178600480360381019061017391906119e8565b6104cc565b6040516101859190611a56565b60405180910390f35b6101a860048036038101906101a39190611a9d565b6104e8565b005b6101c460048036038101906101bf9190611add565b6104fe565b005b6101e060048036038101906101db9190611add565b610600565b005b6101fc60048036038101906101f79190611b30565b610620565b005b610218600480360381019061021391906119e8565b61064f565b6040516102259190611a56565b60405180910390f35b61024860048036038101906102439190611b30565b610661565b6040516102559190611b6c565b60405180910390f35b61026661071b565b005b61027061072f565b60405161027d9190611a56565b60405180910390f35b61028e610759565b60405161029b9190611990565b60405180910390f35b6102be60048036038101906102b99190611bb3565b6107eb565b005b6102da60048036038101906102d59190611d28565b610801565b005b6102f660048036038101906102f191906119e8565b610826565b6040516103039190611990565b60405180910390f35b61032660048036038101906103219190611dab565b61088f565b60405161033391906118e5565b60405180910390f35b61035660048036038101906103519190611b30565b610923565b005b60007f80ac58cd000000000000000000000000000000000000000000000000000000007bffffffffffffffffffffffffffffffffffffffffffffffffffffffff1916827bffffffffffffffffffffffffffffffffffffffffffffffffffffffff1916148061042357507f5b5e139f000000000000000000000000000000000000000000000000000000007bffffffffffffffffffffffffffffffffffffffffffffffffffffffff1916827bffffffffffffffffffffffffffffffffffffffffffffffffffffffff1916145b806104335750610432826109a9565b5b9050919050565b60606000805461044990611e1a565b80601f016020809104026020016040519081016040528092919081815260200182805461047590611e1a565b80156104c25780601f10610497576101008083540402835291602001916104c2565b820191906000526020600020905b8154815290600101906020018083116104a557829003601f168201915b5050505050905090565b60006104d782610a13565b506104e182610a9b565b9050919050565b6104fa82826104f5610ad8565b610ae0565b5050565b600073ffffffffffffffffffffffffffffffffffffffff168273ffffffffffffffffffffffffffffffffffffffff16036105705760006040517f64a0ae920000000000000000000000000000000000000000000000000000000081526004016105679190611a56565b60405180910390fd5b6000610584838361057f610ad8565b610af2565b90508373ffffffffffffffffffffffffffffffffffffffff168173ffffffffffffffffffffffffffffffffffffffff16146105fa578382826040517f64283d7b0000000000000000000000000000000000000000000000000000000081526004016105f193929190611e4b565b60405180910390fd5b50505050565b61061b83838360405180602001604052806000815250610801565b505050565b610628610d0c565b6007600081548092919061063b90611eb1565b919050555061064c81600754610d93565b50565b600061065a82610a13565b9050919050565b60008073ffffffffffffffffffffffffffffffffffffffff168273ffffffffffffffffffffffffffffffffffffffff16036106d45760006040517f89c62b640000000000000000000000000000000000000000000000000000000081526004016106cb9190611a56565b60405180910390fd5b600360008373ffffffffffffffffffffffffffffffffffffffff1673ffffffffffffffffffffffffffffffffffffffff168152602001908152602001600020549050919050565b610723610d0c565b61072d6000610e8c565b565b6000600660009054906101000a900473ffffffffffffffffffffffffffffffffffffffff16905090565b60606001805461076890611e1a565b80601f016020809104026020016040519081016040528092919081815260200182805461079490611e1a565b80156107e15780601f106107b6576101008083540402835291602001916107e1565b820191906000526020600020905b8154815290600101906020018083116107c457829003601f168201915b5050505050905090565b6107fd6107f6610ad8565b8383610f52565b5050565b61080c8484846104fe565b610820610817610ad8565b858585856110c1565b50505050565b606061083182610a13565b50600061083c611272565b9050600081511161085c5760405180602001604052806000815250610887565b8061086684611289565b604051602001610877929190611f35565b6040516020818303038152906040525b915050919050565b6000600560008473ffffffffffffffffffffffffffffffffffffffff1673ffffffffffffffffffffffffffffffffffffffff16815260200190815260200160002060008373ffffffffffffffffffffffffffffffffffffffff1673ffffffffffffffffffffffffffffffffffffffff16815260200190815260200160002060009054906101000a900460ff16905092915050565b61092b610d0c565b600073ffffffffffffffffffffffffffffffffffffffff168173ffffffffffffffffffffffffffffffffffffffff160361099d5760006040517f1e4fbdf70000000000000000000000000000000000000000000000000000000081526004016109949190611a56565b60405180910390fd5b6109a681610e8c565b50565b60007f01ffc9a7000000000000000000000000000000000000000000000000000000007bffffffffffffffffffffffffffffffffffffffffffffffffffffffff1916827bffffffffffffffffffffffffffffffffffffffffffffffffffffffff1916149050919050565b600080610a1f83611357565b9050600073ffffffffffffffffffffffffffffffffffffffff168173ffffffffffffffffffffffffffffffffffffffff1603610a9257826040517f7e273289000000000000000000000000000000000000000000000000000000008152600401610a899190611b6c565b60405180910390fd5b80915050919050565b60006004600083815260200190815260200160002060009054906101000a900473ffffffffffffffffffffffffffffffffffffffff169050919050565b600033905090565b610aed8383836001611394565b505050565b600080610afe84611357565b9050600073ffffffffffffffffffffffffffffffffffffffff168373ffffffffffffffffffffffffffffffffffffffff1614610b4057610b3f818486611559565b5b600073ffffffffffffffffffffffffffffffffffffffff168173ffffffffffffffffffffffffffffffffffffffff1614610bd157610b82600085600080611394565b6001600360008373ffffffffffffffffffffffffffffffffffffffff1673ffffffffffffffffffffffffffffffffffffffff168152602001908152602001600020600082825403925050819055505b600073ffffffffffffffffffffffffffffffffffffffff168573ffffffffffffffffffffffffffffffffffffffff1614610c54576001600360008773ffffffffffffffffffffffffffffffffffffffff1673ffffffffffffffffffffffffffffffffffffffff168152602001908152602001600020600082825401925050819055505b846002600086815260200190815260200160002060006101000a81548173ffffffffffffffffffffffffffffffffffffffff021916908373ffffffffffffffffffffffffffffffffffffffff160217905550838573ffffffffffffffffffffffffffffffffffffffff168273ffffffffffffffffffffffffffffffffffffffff167fddf252ad1be2c89b69c2b068fc378daa952ba7f163c4a11628f55a4df523b3ef60405160405180910390a4809150509392505050565b610d14610ad8565b73ffffffffffffffffffffffffffffffffffffffff16610d3261072f565b73ffffffffffffffffffffffffffffffffffffffff1614610d9157610d55610ad8565b6040517f118cdaa7000000000000000000000000000000000000000000000000000000008152600401610d889190611a56565b60405180910390fd5b565b600073ffffffffffffffffffffffffffffffffffffffff168273ffffffffffffffffffffffffffffffffffffffff1603610e055760006040517f64a0ae92000000000000000000000000000000000000000000000000000000008152600401610dfc9190611a56565b60405180910390fd5b6000610e1383836000610af2565b9050600073ffffffffffffffffffffffffffffffffffffffff168173ffffffffffffffffffffffffffffffffffffffff1614610e875760006040517f73c6ac6e000000000000000000000000000000000000000000000000000000008152600401610e7e9190611a56565b60405180910390fd5b505050565b6000600660009054906101000a900473ffffffffffffffffffffffffffffffffffffffff16905081600660006101000a81548173ffffffffffffffffffffffffffffffffffffffff021916908373ffffffffffffffffffffffffffffffffffffffff1602179055508173ffffffffffffffffffffffffffffffffffffffff168173ffffffffffffffffffffffffffffffffffffffff167f8be0079c531659141344cd1fd0a4f28419497f9722a3daafe3b4186f6b6457e060405160405180910390a35050565b600073ffffffffffffffffffffffffffffffffffffffff168273ffffffffffffffffffffffffffffffffffffffff1603610fc357816040517f5b08ba18000000000000000000000000000000000000000000000000000000008152600401610fba9190611a56565b60405180910390fd5b80600560008573ffffffffffffffffffffffffffffffffffffffff1673ffffffffffffffffffffffffffffffffffffffff16815260200190815260200160002060008473ffffffffffffffffffffffffffffffffffffffff1673ffffffffffffffffffffffffffffffffffffffff16815260200190815260200160002060006101000a81548160ff0219169083151502179055508173ffffffffffffffffffffffffffffffffffffffff168373ffffffffffffffffffffffffffffffffffffffff167f17307eab39ab6107e8899845ad3d59bd9653f200f220920489ca2b5937696c31836040516110b491906118e5565b60405180910390a3505050565b60008373ffffffffffffffffffffffffffffffffffffffff163b111561126b578273ffffffffffffffffffffffffffffffffffffffff1663150b7a02868685856040518563ffffffff1660e01b81526004016111209493929190611fae565b6020604051808303816000875af192505050801561115c57506040513d601f19601f82011682018060405250810190611159919061200f565b60015b6111e0573d806000811461118c576040519150601f19603f3d011682016040523d82523d6000602084013e611191565b606091505b5060008151036111d857836040517f64a0ae920000000000000000000000000000000000000000000000000000000081526004016111cf9190611a56565b60405180910390fd5b805181602001fd5b63150b7a0260e01b7bffffffffffffffffffffffffffffffffffffffffffffffffffffffff1916817bffffffffffffffffffffffffffffffffffffffffffffffffffffffff19161461126957836040517f64a0ae920000000000000000000000000000000000000000000000000000000081526004016112609190611a56565b60405180910390fd5b505b5050505050565b606060405180602001604052806000815250905090565b6060600060016112988461161d565b01905060008167ffffffffffffffff8111156112b7576112b6611bfd565b5b6040519080825280601f01601f1916602001820160405280156112e95781602001600182028036833780820191505090505b509050600082602001820190505b60011561134c578080600190039150507f3031323334353637383961626364656600000000000000000000000000000000600a86061a8153600a85816113405761133f61203c565b5b049450600085036112f7575b819350505050919050565b60006002600083815260200190815260200160002060009054906101000a900473ffffffffffffffffffffffffffffffffffffffff169050919050565b80806113cd5750600073ffffffffffffffffffffffffffffffffffffffff168273ffffffffffffffffffffffffffffffffffffffff1614155b156115015760006113dd84610a13565b9050600073ffffffffffffffffffffffffffffffffffffffff168373ffffffffffffffffffffffffffffffffffffffff161415801561144857508273ffffffffffffffffffffffffffffffffffffffff168173ffffffffffffffffffffffffffffffffffffffff1614155b801561145b5750611459818461088f565b155b1561149d57826040517fa9fbf51f0000000000000000000000000000000000000000000000000000000081526004016114949190611a56565b60405180910390fd5b81156114ff57838573ffffffffffffffffffffffffffffffffffffffff168273ffffffffffffffffffffffffffffffffffffffff167f8c5be1e5ebec7d5bd14f71427d1e84f3dd0314c0f7b2291e5b200ac8c7c3b92560405160405180910390a45b505b836004600085815260200190815260200160002060006101000a81548173ffffffffffffffffffffffffffffffffffffffff021916908373ffffffffffffffffffffffffffffffffffffffff16021790555050505050565b611564838383611770565b61161857600073ffffffffffffffffffffffffffffffffffffffff168373ffffffffffffffffffffffffffffffffffffffff16036115d957806040517f7e2732890000000000000000000000000000000000000000000000000000000081526004016115d09190611b6c565b60405180910390fd5b81816040517f177e802f00000000000000000000000000000000000000000000000000000000815260040161160f92919061206b565b60405180910390fd5b505050565b600080600090507a184f03e93ff9f4daa797ed6e38ed64bf6a1f010000000000000000831061167b577a184f03e93ff9f4daa797ed6e38ed64bf6a1f01000000000000000083816116715761167061203c565b5b0492506040810190505b6d04ee2d6d415b85acef810000000083106116b8576d04ee2d6d415b85acef810000000083816116ae576116ad61203c565b5b0492506020810190505b662386f26fc1000083106116e757662386f26fc1000083816116dd576116dc61203c565b5b0492506010810190505b6305f5e1008310611710576305f5e10083816117065761170561203c565b5b0492506008810190505b612710831061173557612710838161172b5761172a61203c565b5b0492506004810190505b60648310611758576064838161174e5761174d61203c565b5b0492506002810190505b600a8310611767576001810190505b80915050919050565b60008073ffffffffffffffffffffffffffffffffffffffff168373ffffffffffffffffffffffffffffffffffffffff161415801561182857508273ffffffffffffffffffffffffffffffffffffffff168473ffffffffffffffffffffffffffffffffffffffff1614806117e957506117e8848461088f565b5b8061182757508273ffffffffffffffffffffffffffffffffffffffff1661180f83610a9b565b73ffffffffffffffffffffffffffffffffffffffff16145b5b90509392505050565b6000604051905090565b600080fd5b600080fd5b60007fffffffff0000000000000000000000000000000000000000000000000000000082169050919050565b61187a81611845565b811461188557600080fd5b50565b60008135905061189781611871565b92915050565b6000602082840312156118b3576118b261183b565b5b60006118c184828501611888565b91505092915050565b60008115159050919050565b6118df816118ca565b82525050565b60006020820190506118fa60008301846118d6565b92915050565b600081519050919050565b600082825260208201905092915050565b60005b8381101561193a57808201518184015260208101905061191f565b60008484015250505050565b6000601f19601f8301169050919050565b600061196282611900565b61196c818561190b565b935061197c81856020860161191c565b61198581611946565b840191505092915050565b600060208201905081810360008301526119aa8184611957565b905092915050565b6000819050919050565b6119c5816119b2565b81146119d057600080fd5b50565b6000813590506119e2816119bc565b92915050565b6000602082840312156119fe576119fd61183b565b5b6000611a0c848285016119d3565b91505092915050565b600073ffffffffffffffffffffffffffffffffffffffff82169050919050565b6000611a4082611a15565b9050919050565b611a5081611a35565b82525050565b6000602082019050611a6b6000830184611a47565b92915050565b611a7a81611a35565b8114611a8557600080fd5b50565b600081359050611a9781611a71565b92915050565b60008060408385031215611ab457611ab361183b565b5b6000611ac285828601611a88565b9250506020611ad3858286016119d3565b9150509250929050565b600080600060608486031215611af657611af561183b565b5b6000611b0486828701611a88565b9350506020611b1586828701611a88565b9250506040611b26868287016119d3565b9150509250925092565b600060208284031215611b4657611b4561183b565b5b6000611b5484828501611a88565b91505092915050565b611b66816119b2565b82525050565b6000602082019050611b816000830184611b5d565b92915050565b611b90816118ca565b8114611b9b57600080fd5b50565b600081359050611bad81611b87565b92915050565b60008060408385031215611bca57611bc961183b565b5b6000611bd885828601611a88565b9250506020611be985828601611b9e565b9150509250929050565b600080fd5b600080fd5b7f4e487b7100000000000000000000000000000000000000000000000000000000600052604160045260246000fd5b611c3582611946565b810181811067ffffffffffffffff82111715611c5457611c53611bfd565b5b80604052505050565b6000611c67611831565b9050611c738282611c2c565b919050565b600067ffffffffffffffff821115611c9357611c92611bfd565b5b611c9c82611946565b9050602081019050919050565b82818337600083830152505050565b6000611ccb611cc684611c78565b611c5d565b905082815260208101848484011115611ce757611ce6611bf8565b5b611cf2848285611ca9565b509392505050565b600082601f830112611d0f57611d0e611bf3565b5b8135611d1f848260208601611cb8565b91505092915050565b60008060008060808587031215611d4257611d4161183b565b5b6000611d5087828801611a88565b9450506020611d6187828801611a88565b9350506040611d72878288016119d3565b925050606085013567ffffffffffffffff811115611d9357611d92611840565b5b611d9f87828801611cfa565b91505092959194509250565b60008060408385031215611dc257611dc161183b565b5b6000611dd085828601611a88565b9250506020611de185828601611a88565b9150509250929050565b7f4e487b7100000000000000000000000000000000000000000000000000000000600052602260045260246000fd5b60006002820490506001821680611e3257607f821691505b602082108103611e4557611e44611deb565b5b50919050565b6000606082019050611e606000830186611a47565b611e6d6020830185611b5d565b611e7a6040830184611a47565b949350505050565b7f4e487b7100000000000000000000000000000000000000000000000000000000600052601160045260246000fd5b6000611ebc826119b2565b91507fffffffffffffffffffffffffffffffffffffffffffffffffffffffffffffffff8203611eee57611eed611e82565b5b600182019050919050565b600081905092915050565b6000611f0f82611900565b611f198185611ef9565b9350611f2981856020860161191c565b80840191505092915050565b6000611f418285611f04565b9150611f4d8284611f04565b91508190509392505050565b600081519050919050565b600082825260208201905092915050565b6000611f8082611f59565b611f8a8185611f64565b9350611f9a81856020860161191c565b611fa381611946565b840191505092915050565b6000608082019050611fc36000830187611a47565b611fd06020830186611a47565b611fdd6040830185611b5d565b8181036060830152611fef8184611f75565b905095945050505050565b60008151905061200981611871565b92915050565b6000602082840312156120255761202461183b565b5b600061203384828501611ffa565b91505092915050565b7f4e487b7100000000000000000000000000000000000000000000000000000000600052601260045260246000fd5b60006040820190506120806000830185611a47565b61208d6020830184611b5d565b939250505056fea2646970667358221220371fe04346e2df6d1014d52a55566c6f8317c7aa2651f800004a470105984b6c64736f6c63430008140033",
  "linkReferences": {},
  "deployedLinkReferences": {}
}