{
  "contractName": "RentalMarketplace",
  "abi": [
    {
      "inputs": [],
      "stateMutability": "nonpayable",
      "type": "constructor"
    },
    {
      "anonymous": false,
      "inputs": [
        {
          "indexed": true,
          "internalType": "address",
          "name": "renter",
          "type": "address"
        },
        {
          "indexed": false,
          "internalType": "uint256",
          "name": "rentalPrice",
          "type": "uint256"
        },
        {
          "indexed": false,
          "internalType": "uint256",
          "name": "deposit",
          "type": "uint256"
        }
      ],
      "name": "ItemRented",
      "type": "event"
    },
    {
      "anonymous": false,
      "inputs": [
        {
          "indexed": true,
          "internalType": "address",
          "name": "renter",
          "type": "address"
        }
      ],
      "name": "ItemReturned",
      "type": "event"
    },
    {
      "inputs": [],
      "name": "depositAmount",
      "outputs": [
        {
          "internalType": "uint256",
          "name": "",
          "type": "uint256"
        }
      ],
      "stateMutability": "view",
      "type": "function"
    },
    {
      "inputs": [],
      "name": "owner",
      "outputs": [
        {
          "internalType": "address",
          "name": "",
          "type": "address"
        }
      ],
      "stateMutability": "view",
      "type": "function"
    },
    {
      "inputs": [],
      "name": "rentalPrice",
      "outputs": [
        {
          "internalType": "uint256",
          "name": "",
          "type": "uint256"
        }
      ],
      "stateMutability": "view",
      "type": "function"
    },
    {
      "inputs": [
        {
          "internalType": "address",
          "name": "",
          "type": "address"
        }
      ],
      "name": "rentedItems",
      "outputs": [
        {
          "internalType": "uint256",
          "name": "",
          "type": "uint256"
        }
      ],
      "stateMutability": "view",
      "type": "function"
    },
    {
      "inputs": [
        {
          "internalType": "address",
          "name": "",
          "type": "address"
        }
      ],
      "name": "renters",
      "outputs": [
        {
          "internalType": "bool",
          "name": "",
          "type": "bool"
        }
      ],
      "stateMutability": "view",
      "type": "function"
    },
    {
      "inputs": [],
      "name": "rentItem",
      "outputs": [],
      "stateMutability": "payable",
      "type": "function"
    },
    {
      "inputs": [],
      "name": "returnItem",
      "outputs": [],
      "stateMutability": "nonpayable",
      "type": "function"
    },
    {
      "inputs": [],
      "name": "withdraw",
      "outputs": [],
      "stateMutability": "nonpayable",
      "type": "function"
    }
  ],
  "bytecode": "0x608060405234801561000f575f80fd5b50335f806101000a81548173ffffffffffffffffffffffffffffffffffffffff021916908373ffffffffffffffffffffffffffffffffffffffff16021790555067016345785d8a00006001819055506702c68af0bb14000060028190555061097f8061007a5f395ff3fe60806040526004361061007a575f3560e01c8063644a13701161004d578063644a1370146101245780638500d668146101605780638da5cb5b1461016a578063c0d047f0146101945761007a565b80631c43cd041461007e5780633ccfd60b146100a8578063419759f5146100be578063442a1fde146100e8575b5f80fd5b348015610089575f80fd5b506100926101aa565b60405161009f919061064a565b60405180910390f35b3480156100b3575f80fd5b506100bc6101b0565b005b3480156100c9575f80fd5b506100d26102a2565b6040516100df919061064a565b60405180910390f35b3480156100f3575f80fd5b5061010e600480360381019061010991906106c1565b6102a8565b60405161011b919061064a565b60405180910390f35b34801561012f575f80fd5b5061014a600480360381019061014591906106c1565b6102bd565b6040516101579190610706565b60405180910390f35b6101686102da565b005b348015610175575f80fd5b5061017e610418565b60405161018b919061072e565b60405180910390f35b34801561019f575f80fd5b506101a861043b565b005b60015481565b5f8054906101000a900473ffffffffffffffffffffffffffffffffffffffff1673ffffffffffffffffffffffffffffffffffffffff163373ffffffffffffffffffffffffffffffffffffffff161461023d576040517f08c379a0000000000000000000000000000000000000000000000000000000008152600401610234906107a1565b60405180910390fd5b5f8054906101000a900473ffffffffffffffffffffffffffffffffffffffff1673ffffffffffffffffffffffffffffffffffffffff166108fc4790811502906040515f60405180830381858888f1935050505015801561029f573d5f803e3d5ffd5b50565b60025481565b6004602052805f5260405f205f915090505481565b6003602052805f5260405f205f915054906101000a900460ff1681565b6002546001546102ea91906107ec565b341461032b576040517f08c379a000000000000000000000000000000000000000000000000000000000815260040161032290610869565b60405180910390fd5b600160035f3373ffffffffffffffffffffffffffffffffffffffff1673ffffffffffffffffffffffffffffffffffffffff1681526020019081526020015f205f6101000a81548160ff0219169083151502179055504260045f3373ffffffffffffffffffffffffffffffffffffffff1673ffffffffffffffffffffffffffffffffffffffff1681526020019081526020015f20819055503373ffffffffffffffffffffffffffffffffffffffff167f028db07736c03b7893464d12f66e90ff4f4ce148cab44bb706e7e805678eff3460015460025460405161040e929190610887565b60405180910390a2565b5f8054906101000a900473ffffffffffffffffffffffffffffffffffffffff1681565b60035f3373ffffffffffffffffffffffffffffffffffffffff1673ffffffffffffffffffffffffffffffffffffffff1681526020019081526020015f205f9054906101000a900460ff166104c4576040517f08c379a00000000000000000000000000000000000000000000000000000000081526004016104bb906108f8565b60405180910390fd5b5f60045f3373ffffffffffffffffffffffffffffffffffffffff1673ffffffffffffffffffffffffffffffffffffffff1681526020019081526020015f20544261050e9190610916565b90505f60035f3373ffffffffffffffffffffffffffffffffffffffff1673ffffffffffffffffffffffffffffffffffffffff1681526020019081526020015f205f6101000a81548160ff0219169083151502179055505f60045f3373ffffffffffffffffffffffffffffffffffffffff1673ffffffffffffffffffffffffffffffffffffffff1681526020019081526020015f20819055503373ffffffffffffffffffffffffffffffffffffffff166108fc60025490811502906040515f60405180830381858888f193505050501580156105eb573d5f803e3d5ffd5b503373ffffffffffffffffffffffffffffffffffffffff167f06622208be5550e28cc675e0a548ae1c977314dd208c202cc47fc4fdec2bb92f60405160405180910390a250565b5f819050919050565b61064481610632565b82525050565b5f60208201905061065d5f83018461063b565b92915050565b5f80fd5b5f73ffffffffffffffffffffffffffffffffffffffff82169050919050565b5f61069082610667565b9050919050565b6106a081610686565b81146106aa575f80fd5b50565b5f813590506106bb81610697565b92915050565b5f602082840312156106d6576106d5610663565b5b5f6106e3848285016106ad565b91505092915050565b5f8115159050919050565b610700816106ec565b82525050565b5f6020820190506107195f8301846106f7565b92915050565b61072881610686565b82525050565b5f6020820190506107415f83018461071f565b92915050565b5f82825260208201905092915050565b7f4f6e6c7920746865206f776e65722063616e20776974686472617700000000005f82015250565b5f61078b601b83610747565b915061079682610757565b602082019050919050565b5f6020820190508181035f8301526107b88161077f565b9050919050565b7f4e487b71000000000000000000000000000000000000000000000000000000005f52601160045260245ffd5b5f6107f682610632565b915061080183610632565b9250828201905080821115610819576108186107bf565b5b92915050565b7f496e636f7272656374207061796d656e7420616d6f756e7400000000000000005f82015250565b5f610853601883610747565b915061085e8261081f565b602082019050919050565b5f6020820190508181035f83015261088081610847565b9050919050565b5f60408201905061089a5f83018561063b565b6108a7602083018461063b565b9392505050565b7f596f7520686176656e27742072656e74656420616e206974656d0000000000005f82015250565b5f6108e2601a83610747565b91506108ed826108ae565b602082019050919050565b5f6020820190508181035f83015261090f816108d6565b9050919050565b5f61092082610632565b915061092b83610632565b9250828203905081811115610943576109426107bf565b5b9291505056fea264697066735822122034eff87788b07ef55925cf6687c33e10e33b36a647bb788ecf97953aca46303464736f6c63430008150033",
  "immutableReferences": {},
  "source": "// SPDX-License-Identifier: MIT\npragma solidity ^0.8.0;\n\ncontract RentalMarketplace {\n    address public owner;\n    uint public rentalPrice;\n    uint public depositAmount;\n\n    mapping(address => bool) public renters;\n    mapping(address => uint) public rentedItems;\n\n    event ItemRented(address indexed renter, uint rentalPrice, uint deposit);\n    event ItemReturned(address indexed renter);\n\n    constructor() {\n        owner = msg.sender;\n        rentalPrice = 0.1 ether;  // Example rental price\n        depositAmount = 0.2 ether; // Example deposit amount\n    }\n\n    // Function for renting an item\n    function rentItem() external payable {\n        require(msg.value == rentalPrice + depositAmount, \"Incorrect payment amount\");\n        renters[msg.sender] = true;\n        rentedItems[msg.sender] = block.timestamp;\n        emit ItemRented(msg.sender, rentalPrice, depositAmount);\n    }\n\n    // Function to return rented item\n    function returnItem() external {\n        require(renters[msg.sender], \"You haven't rented an item\");\n        uint rentalDuration = block.timestamp - rentedItems[msg.sender];\n        renters[msg.sender] = false;\n        rentedItems[msg.sender] = 0;\n        payable(msg.sender).transfer(depositAmount); // Refund deposit\n        emit ItemReturned(msg.sender);\n    }\n\n    // Function to withdraw funds (for the owner)\n    function withdraw() external {\n        require(msg.sender == owner, \"Only the owner can withdraw\");\n        payable(owner).transfer(address(this).balance);\n    }\n}\n",
  "sourcePath": "/workspaces/P2P_RENTAL/contracts/RentalMarketplace.sol",
  "compiler": {
    "name": "solc",
    "version": "0.8.21+commit.d9974bed.Emscripten.clang"
  },
  "schemaVersion": "3.4.16",
  "updatedAt": "2024-11-16T07:54:12.562Z",
  "devdoc": {
    "kind": "dev",
    "methods": {},
    "version": 1
  },
  "userdoc": {
    "kind": "user",
    "methods": {},
    "version": 1
  }
}